:10000000E82400201901000015010000150100007E
:1000100000000000000000000000000000000000E0
:1000200000000000000000000000000015010000BA
:100030000000000000000000150100001108000091
:100040001501000015010000150100001501000058
:100050001501000015010000150100001501000048
:100060001501000015010000150100001501000038
:1000700015010000150100008907000015010000AE
:100080001501000015010000150100001501000018
:100090001501000000000000000000001501000034
:1000A00015010000150100001501000015010000F8
:1000B0000000000010B5064C2378002B07D1054B3B
:1000C000002B02D0044800E000BF0123237010BDC4
:1000D0003804002000000000281D0000084B10B567
:1000E000002B03D00749084800E000BF0748036819
:1000F000002B00D110BD064B002BFBD09847F9E731
:10010000000000003C040020281D0000281D000005
:1001100000000000FEE70000F8B52A4A2A4B9A4288
:1001200011D01A00294B9A420DD2294A03339B1A47
:100130009B0801339B000022234822498C5884509D
:1001400004329A42FAD1234A234B9A420AD2D34329
:1001500021495B1803218B4304339B18002102C201
:100160009342FCD11D4AFF211D4B8B439360FD3907
:1001700090235B001B4AD1501B4AD3780325AB4325
:1001800002242343D370D3780C27BB430826334380
:10019000D370164B987B30229043202210439873E3
:1001A000997BB943314399739A7BAA4322439A734B
:1001B0000F4A536880210B4353600E4B98470E4BF8
:1001C0009847FEE7281D00000000002034040020AE
:1001D0000400002038040020E404002000ED00E0CA
:1001E0000000000000700041005000410048004144
:1001F00000400041A519000059040000574A536807
:100200001E218B431C390B435360554A93690631B9
:100210000B439361534B544A9A829A8A02210A43B0
:100220009A8219000222CB681A42FCD001224F4B5D
:100230001A701A00012113780B4203D053785BB275
:10024000002BF8DB0122494B9A601A0053785BB20D
:10025000002BFBDB464A454B5A601A0053785BB2D1
:10026000002BFBDB8222D201404B5A801A005378CC
:100270005BB2002BFBDB3B4A938C80218B43938446
:1002800011001022CB681A42FCD03A4A354BDA6290
:1002900019001022CB681A42FCD0324A938C36499E
:1002A0000B43938411001022CB681A42FCD02D4AD4
:1002B000938C02210B4393847E314020D3681942F2
:1002C000FCD0D3681842F9D026491022CB681A42D4
:1002D000FCD00022254B9A601A0053785BB2002BA9
:1002E000FBDB264A214B5A601A0053785BB2002B85
:1002F000FBDB1C4B1A6A22491140802252000A4340
:100300001A621A6A80218A431A62184B03229A6081
:100310001C4A5A601A0053785BB2002BFBDB104B6F
:1003200000221A725A729A72DA72174A174B1A60BE
:10033000174B1968174B1868C00E8B065B0F1B0212
:100340004901FF220A4002431343134A1385034A1B
:10035000536880210B4353607047C0460040004102
:1003600000040040000800400C060000000C0040A3
:1003700001050100B805FF7D040A00000007030025
:10038000FFFCFFFF03060100006CDC020000002000
:100390002460800020608000004000420020704700
:1003A00010B5094A1378591E1170002B03D1074864
:1003B000074B984710BD074A1368591C11601878FD
:1003C000054B9847F6E7C046A8040020A1030000AB
:1003D0006D070000AC0400203507000070B5040074
:1003E0000D001648164B9847002811D0682C1AD0DB
:1003F0000FD9692C13D0742C1CD12800114B9847AD
:10040000114B1870114B1D602000114B98470120B3
:1004100070BD632C0ED120220B4B1A70F2E7032221
:10042000094B1A70EEE72022074B1A700022094B85
:100430001A70E7E70022044B1A70E3E7A1030000FB
:1004400051070000051B0000A8040020AC04002098
:100450003507000059040020F0B5D6464F46464601
:10046000C0B590B02022002108A8454B9847454BC5
:1004700000200021186059609860D96018615961A6
:100480009861D961404B0120002118605960052016
:1004900000219860D9601420002118615961986189
:1004A000D9613A4B98473A4B98473A483A4B984764
:1004B0003A4B9846334B9A46334B994623E049468C
:1004C0000968914231D2364B9847364B6A461A60DA
:1004D0002BE008A96820344B9847002809D0294907
:1004E000294B9A68DB688E68CF6892197B418A60D5
:1004F000CB60244B9A69DB69A41A9D41224BDA69CF
:10050000AA4227D323D0C04704000D0002000B00ED
:10051000514608684968121A8B4149464968994210
:10052000D1D3494649689942C9D0164B9A68DB68CD
:1005300020002900801A994106000F001249CB685B
:10054000BB42C6D3D5D18B68B342D2D2C1E79B6937
:10055000A342D8D269466320134B98470028D2D0D3
:100560002022694608A8114B98470649064B9A690C
:10057000DB698C69CD6912196B418A61CB61C2E775
:10058000711A00006004002088040020FD010000B2
:10059000C907000040420F00B10500000508000037
:1005A0009D03000080040020DD030000ED19000021
:1005B00070B5504BBB215A5C0F24A2430324224345
:1005C0005A54D6229C5C01252C439C545C5CC73A4F
:1005D0002240302422435A541C315A5C2A435A5434
:1005E000454A136A57390B431362444A444B5A80B5
:1005F0001A0053785BB2002BFBDB424A13680121DF
:100600000B4313601368DB07FCD4D369DB07F9D411
:100610003C4C23681C229343183A134323602368FD
:10062000394A134023602268C0239B03134323608D
:100630002368364A13408022520213432360236802
:100640003349194080239B010B4323602168802399
:10065000DB050B43236023682E490B40236063684E
:1006600007218B436360636839318B436360616842
:1006700080239B020B43636063681A43626000013E
:10068000254B984702000B0000202449244DA84721
:10069000244B984707230340A2895B03D204D20C62
:1006A0001A43A2810004A389C00C5B0B5B030343C4
:1006B000A381A37D02221343A375A37D04221343C8
:1006C000A375194B8022D2011A60C32080001A58EA
:1006D00016491140C02212040A431A50236802220C
:1006E000134323602200D3699B07FCD40022104BE4
:1006F0001A6070BD00440041000400401940000031
:10070000000C0040001C0042FFFFFFEFFFFFFCFF5A
:10071000FF1FFFFFFFFFFFF06515000060E3B6411C
:10072000690800002D08000000E100E0FFFF00FF65
:10073000B4040020054A137EDB07FCD5034A138D61
:100740005B0A5B02184310857047C046001C0042DC
:10075000054B1A680023002A01D018007047024B8D
:100760001860C3B2F9E7C046B4040020054B1A680C
:100770000023824201D0180070470022014B1A600A
:100780000123F8E7B404002010B50C4B1B7E9B0737
:1007900004D40A4B1B7E5B0709D410BD074A137EA5
:1007A00002210B431376064B1B689847F5E7034B72
:1007B000188DC0B2034B1B689847EEE7001C00423F
:1007C000B4040020B00400200A4A0B4B53600B48CD
:1007D000036A1B021B0AC02109060B4303620023A4
:1007E00093600733136000200021054B18605960A7
:1007F0007047C04610E000E07FBB000000ED00E065
:10080000B8040020014B186859687047B8040020EC
:1008100030B505490A684B680124002512196B415F
:100820000A604B6030BDC046B804002070B500229D
:100830000C4B04000D0000F08DFF002804D12000B7
:10084000290000F05BFE70BD064B0022200029004D
:1008500000F03EFB00F052FE80231B069C466044E5
:10086000F1E7C0460000E041F0B557464546DE4698
:100870004E46E0B54C000E0387B0834692461D00FD
:100880008046360B640DCF0F002C4FD06F4B9C422F
:1008900035D08023420F1B04F6001343334399469F
:1008A000C30098466A4B00269C4600236444039389
:1008B0002B031B0B9B466B00ED0F50465B0D019508
:1008C0005ED0624A934253D05A46D1008022400FF4
:1008D000120402430A4393465246D1005C4A9446AE
:1008E000002263443800684084460290E41A1643AC
:1008F0000F2E00D9B4E0574BB6009B599F4603001A
:10090000334399466CD1002398460233082603935B
:10091000CEE7CB464146039A0197022A65D1019B57
:100920004A4C9C460023002298466BE00300334368
:1009300099464ED0002E00D1BCE1300000F014FFEB
:1009400003000B3B1C2B00DDACE11D22D31A5A46E1
:100950000100DA4008398E401300334399465B4664
:100960008B40984600233C4C0026241A03939FE7B3
:1009700051465A46114329D1002293460232B1E72B
:10098000594601431ED05B46002B00D19EE15846DC
:1009900000F0EAFE03000B3B1C2B00DD8FE10200A0
:1009A0005946083A91408B461D21CB1A5146D940F1
:1009B0000B0059460B4351469B469140264B002263
:1009C0001B1A8FE7002301229B468BE75146032227
:1009D00088E700239846013304260024039367E741
:1009E0000323B14603930C2662E7032A00D15CE29D
:1009F000019B012A00D0E4E113409C46002300241F
:100A00000022984600211203130B0A0D12051A4307
:100A10002305124C40462240134362465B00D20736
:100A20005B081343190007B03CBC90469946A246A8
:100A3000AB46F0BD002380229C4612039846034C2F
:100A4000E0E70023014C00229846DBE7FF070000A7
:100A500001FCFFFFC01C00000DFCFFFFFFFF0F802B
:100A6000D94500D939E100D134E1002346464D464D
:100A70009A46013C5B460A0E1B021A430B02170CF6
:100A8000039313041B0C390028009046019300F0D7
:100A9000A1FD0200019B83465A432800390091467C
:100AA00000F01EFE350C09040D43A9450DD95B4627
:100AB0004544013BA84500D93AE1A94500D837E1B2
:100AC00002235B429C464544E3444B46EB1A390003
:100AD0001800049300F07EFD019B0500434339009C
:100AE0000498994600F0FCFD330409041B0C0B43E9
:100AF000994509D943446A1E984500D91AE1994598
:100B000000D817E1023D43444A469B1A5A46120454
:100B10002A4303999346100C0A0C914609045A463D
:100B2000090C4E460D001204120C45430591514329
:100B30007243704352190E0CB218954203D98025A6
:100B40006D02AC466044150C09041204090C281807
:100B50005218834200D2CEE000D1C8E01D1A53469D
:100B60009E1AB24592415242AB1A9A46984500D11C
:100B700017E13900180000F02DFD019B05004343EB
:100B800039005046049300F0ABFD04980B04310C7F
:100B90001943884209D941446B1E884500D907E1B1
:100BA000884200D804E1023D4144049BCB1A18005E
:100BB0003900049300F00EFD019B82464343390047
:100BC0000498019300F08CFD01980B043104090C8A
:100BD000194388420DD953464144013B884500D909
:100BE000E8E0884200D8E5E002235B429C464144AD
:100BF000E244019B2D04CE1A51462943059D4F46E0
:100C00002A000B04080C1B0C5A4345437B437843D2
:100C10005B19170CFB189D4203D980256D02AC4669
:100C200060441D0C12041B04120C28189B188642E9
:100C300000D293E000D18EE001231943A04BE318CA
:100C4000002B00DC99E04A0700D09EE05A46D20112
:100C500006D55A469B4B1A4080239346DB00E31887
:100C6000994A934268DD0123029A984C1A40002366
:100C7000944698460022C5E680224B461203134252
:100C80000AD05B46134206D11A431203120BAC463C
:100C900088468E4CB6E64B461A431203120BBC46EE
:100CA0008A4CAFE603005A46283B9A4000239146FF
:100CB000984657E6584600F057FD203040E60300BE
:100CC0005246283B9A400021934677E600F04CFDBF
:100CD00020305FE6884500D2C7E64B46DE075D0858
:100CE00043465B081E434346DB079A46C2E600259F
:100CF000924500D333E7039E5946B446E244B245D9
:100D0000AD416D424544EB180139984507D29842F0
:100D100000D97FE000D1BCE01D1A8B461FE7984543
:100D2000FAD1039D5545F2D943468B461D1A16E765
:100D30009B46CAE61500E7E65A46C90852070A4329
:100D40005B0590465C0D5A460123029952021940F8
:100D5000120B8C4656E6002B00D16FE746444A1E24
:100D6000B04529D91100864200D065E7039A934225
:100D700000D061E762E7012149420120C21A382A06
:100D800021DD029B03409C4638E60F220A40042ADC
:100D900000D15BE70A00111D9142924152429344F7
:100DA00054E7474BE318002BE5DD01225242F2E7FE
:100DB0001D00FAE69A461CE7B04239D86ED0110001
:100DC0003AE702933AE71F2A3CDC20239B1A0C00E7
:100DD0005846994098404B1E99415B46D440D340B9
:100DE000204308431A00430709D00F230340042B74
:100DF00005D00100081D88429B415B42D2181302B6
:100E00003AD50123029A01241A40002394469846B9
:100E10000022F7E5022149428C46039DE344AC469B
:100E2000E244AA45AD416D424544ED182D1A96E6BF
:100E30008A1E03994D008D428941494241447618EA
:100E400003958FE71F204042C31A5846D84003003D
:100E5000202A28D040205D46821A954029434A1E08
:100E600091411943072300220B4009D00F23002290
:100E70000B400800042BBDD1010053075202120B96
:100E8000C9081943012388460299002419408C4659
:100E9000B8E55245BED88B46002560E6039D9D42CD
:100EA000C6D3110062E70025D8E780225B46120313
:100EB0001A43019B1203120B9C468846034CA1E582
:100EC000FF030000FFFFFFFEFE070000FF0700001A
:100ED000F0B54646D6464F460C03C0B5CD0F4E0082
:100EE000610A440F0C43C1005800400D84468A46F5
:100EF0000F001903500F490A0143C648760DA84652
:100F0000DB0FD200844500D1D8E001204340AB4242
:100F100000D1A6E06046351A002D00DC05E100286E
:100F200010D10B00134300D1D7E06B1E002B00D073
:100F30004BE153469F1ABA458041641A4042241A35
:100F400001261EE0B34B9E4248D080231B04194368
:100F5000382D00DD19E11F2D00DD4CE120230F00AD
:100F60005B1B10009A409F40E840531E9A41E940A5
:100F7000074317435346DF1B611ABA45A441644235
:100F80000C1B230200D4C5E06402650A002D00D1C9
:100F9000F6E0280000F0E8FB0300083B1F2B00DD13
:100FA000E9E020223C00D21A9D40D4409F402543D6
:100FB0009E4200DDDBE09E1B731C1F2B00DD0AE15F
:100FC00020223800D21A290097402C009140D840A6
:100FD0007A1E9741DC40002601430F437B0709D06E
:100FE0000F233B40042B05D03B1DBB42BF417F423A
:100FF000E4191F00230225D5864B01369E4200D1FD
:10100000AFE0854B01251C4043466207FF086402A0
:1010100076051743240B760D1D4000212403230B76
:101020000C0D7E4A24051C431440330523435B000A
:10103000ED075B082B43380019001CBC904699460D
:10104000A246F0BD012543466207FF081743E408A6
:101050001D40704B9E4236D024037605240B760D3E
:10106000DBE76346F31A002B00DC94E060460028BF
:1010700035D068488642B1D080273F043943382BA9
:1010800000DCFDE00A43170000217A1E9741574417
:1010900057458041091944420C1923023AD55D4B4A
:1010A00001369E4200D14BE101225B4B1C407B0884
:1010B00017401F43E207174364088FE708001043F7
:1010C00000D024E721E723003B4300D1B9E180228F
:1010D000120314432403240B9FE72E007EE708002D
:1010E000104300D1CAE0581E8446002800D0E7E033
:1010F000524452458041641840422418170001268A
:10110000230207D50226CFE764462C4300D1B3E182
:101110002C0067467B0700D062E76307FF081F4388
:1011200001254346E4081D4093E7002D78D1751C46
:101130006D056D0D012D00DCF2E05046801A8245F0
:10114000BF41651A7F42ED1B8446280200D48CE023
:101150005046171ABA4292410C1B5542651B9846DD
:1011600014E70125434600241D40002755E72A4C7B
:10117000F61A2C4032E73D0028388540002717E753
:10118000380000F0F1FA203006E70A43170000218A
:101190007A1E9741EEE6002B00D0E5E0731C9C46DA
:1011A0005B055B0D012B00DC9FE01A4B9C4500D1D9
:1011B000C5E0524452458041641840422418E70774
:1011C000520817436408664608E71248854200D172
:1011D00085E01D00BCE629001F3EF140202B00D118
:1011E0007FE04022D31A9D402F437D1EAF41002453
:1011F0000F4300268EE72B000F00203BDF40202D01
:1012000071D040235D1BA9400A43511E8A41002131
:101210001743AFE6FF070000FFFF7FFFFFFF0F80D0
:10122000002E3ED0B34EB44545D0802636046D42E4
:101230003443382D00DDA8E01F2D00DD1FE12026FE
:1012400027005046761BB740E84007435046B04061
:10125000461EB041EC403843171ABA4292410C1B6B
:101260005242A41A664698468BE6644667462C436B
:1012700000D08BE6002500260027EAE61E00ADE63A
:101280001F2B60DC2027F81A0F00844687401000CF
:10129000D840074360468240501E8241D9401743E0
:1012A000F5E626005046064305D0ED43002DD3D089
:1012B000904EB445BDD10C001700664698468DE6A9
:1012C0008C4883420BD06346D9E6002D00D096E0CF
:1012D0000800104300D1E2E00C0017009846854E4C
:1012E0007CE6002580E700218EE72300504603437B
:1012F000002E00D0A8E0002B00D1DEE00B0013434D
:1013000000D16BE652445245804164184042241893
:101310001700230200D4FDE6774B66461C405DE6CD
:10132000250050460543002ECFD1002D4FD10C0093
:10133000144300D1A0E00C00170098464EE6664624
:101340000024002785E61F000800203FF840070022
:10135000202B00D18EE04020C31A99400A43511E31
:101360008A410021174392E6002E14D126005046F0
:10137000064362D0DB43002B5CD187189742924131
:1013800064185242A418664687E650462043441E1D
:10139000A041002460E7574EB4454ED08026360465
:1013A0005B423443382B00DD7FE01F2B00DD8BE0F8
:1013B000202627005046F61AB740D840074350462B
:1013C000B040461EB0410743DC40BF18D6E70D00D1
:1013D000154300D102E65046801A8245BF41651A86
:1013E0007F42ED1B8446280200D48DE65046171A32
:1013F000BA4292410C1B5242A41A9846EEE50D00E7
:10140000154300D16BE750466707C00807438020AB
:10141000E4080003044207D0CD08054204D12C00A3
:101420009846D70849070F437B0FE4001C43FF0091
:10143000304ED3E52F4EB445B4D10C0017006646AC
:10144000CCE500270024E8E5002B39D00B0013433E
:1014500000D144E7C008670707438020E408000381
:101460000442E1D0CB080342DED1D70849070F433D
:101470001C00D9E7002171E700250027E9E52E00CF
:101480002700203EF740202D2FD04026751BAC4072
:1014900050462043441EA04100243843DCE680240B
:1014A00000252403134E0027D3E5504620430700B0
:1014B000781E87410024BF1860E70C0017008DE5F7
:1014C0000C0017000B4E89E51E002700203EF74058
:1014D000202B0CD04026F31A9C4050462043441E3B
:1014E000A04107430024BF1848E70024D0E70024A8
:1014F000F3E7C046FF070000FFFF7FFF30B5134D45
:101500000A034B00120B5B0DC90F0024AB4210DD28
:101510000F4CA3420FDC80240E4D64032243ED1ACE
:101520001F2D0BDD0C48C31ADA405442002900D1AC
:101530001400200030BD094BCC18FAE7084CE840F5
:10154000A44663449A400243EFE7C046FE0300000E
:101550001D0400003304000013040000FFFFFF7FA0
:10156000EDFBFFFF10B5041E28D000F0FDF8154B71
:10157000154A1B1AD21A1F2A15DD144AD21A944092
:10158000002224035B05240B5B0D002110002403C3
:101590000A0D240B120522430D4C1B052240134358
:1015A0005B00590810BD210091400A000B21081A68
:1015B000C4405B052403240B5B0DE6E700230024F5
:1015C0000022E2E71E0400003304000013040000C0
:1015D000FFFF0F80002243088B4274D303098B4224
:1015E0005FD3030A8B4244D3030B8B4228D3030CF3
:1015F0008B420DD3FF22090212BA030C8B4202D395
:101600001212090265D0030B8B4219D300E0090ABC
:10161000C30B8B4201D3CB03C01A5241830B8B42C5
:1016200001D38B03C01A5241430B8B4201D34B03AE
:10163000C01A5241030B8B4201D30B03C01A524113
:10164000C30A8B4201D3CB02C01A5241830A8B4298
:1016500001D38B02C01A5241430A8B4201D34B0281
:10166000C01A5241030A8B4201D30B02C01A5241E5
:10167000CDD2C3098B4201D3CB01C01A5241830999
:101680008B4201D38B01C01A524143098B4201D3D3
:101690004B01C01A524103098B4201D30B01C01AFE
:1016A0005241C3088B4201D3CB00C01A5241830878
:1016B0008B4201D38B00C01A524143088B4201D3A5
:1016C0004B00C01A5241411A00D201465241104605
:1016D0007047FFE701B5002000F006F802BDC046E4
:1016E0000029F7D076E770477047C0468446101C43
:1016F00062468C46191C634600E0C0461FB500F0E8
:10170000EFF8002801D40021C8421FBD10B500F039
:1017100049F84042013010BD10B500F0E1F8002852
:1017200001DB002010BD012010BDC04610B500F047
:10173000D7F8002801DD002010BD012010BDC046F3
:1017400010B500F069F8002801DC002010BD012070
:1017500010BDC04610B500F05FF8002801DA002087
:1017600010BD012010BDC0461C2101231B0498425E
:1017700001D3000C10391B0A984201D3000A083922
:101780001B09984201D30009043902A2105C4018D9
:101790007047C0460403020201010101000000007D
:1017A00000000000F0B54F464646D6465C00C0B586
:1017B0001F03DB0F9A46174B0E034D0084468046ED
:1017C000360B6D0DC90F91463F0B640D01209D42F4
:1017D00008D09C4201D0A5420BD01CBC9046994633
:1017E000A246F0BD63463343F7D1AC42F5D13A434C
:1017F000F3D10120BE42F0D1C845EED1514507D00A
:10180000002DEAD163461E433000461EB041E4E796
:101810000020E2E7FF070000F0B54546DE465746E8
:101820004E46E0B51F033D0B2C4F0E034C00AB465C
:101830005D008446360B640DC90F90466D0DDB0FBD
:10184000BC422AD0254FBD422DD0002C0FD13043B1
:101850000700814678427841C0B2002D17D15F461B
:101860003A4314D14B460020002B0AD006E0002D4D
:1018700002D15846024301D0994218D04842012172
:1018800008433CBC90469946A246AB46F0BD0028B2
:10189000F2D00120013B1843F3E737000743D1D0D2
:1018A00002204042EDE75F461743CED0F8E7AC4256
:1018B000E4DC03DA481E01210843E2E75E45DDD897
:1018C00006D000205E45DCD20123481E1843D8E72D
:1018D000C445D3D80020C445F6D3D2E7FF070000A3
:1018E000F0B54E464546DE4657465C00E0B51F0360
:1018F000DB0F99462A4B0E034D00C90F8446360B69
:101900006D0D8B4690463F0B640D9D4220D0244BBD
:101910009C4222D0002D12D1304343424341DBB2DE
:10192000002C1FD0002B0CD04B460120013B034361
:1019300018003CBC90469946A246AB46F0BD002C30
:1019400016D0CB4517D05B46594201230B43EFE736
:10195000310002230143EBD1D9E7390002231143BF
:10196000E6D1D7E73A43DDD100230028E0D0EAE70B
:101970003A43E6D1E7E7A542E5DC05DBBE42E2D823
:1019800007D00023BE42D3D25946012301390B436D
:10199000CEE7C445D7D80023C445F5D3C8E7C04631
:1019A000FF07000070B50D4E0D4D0024AD1BAD10AE
:1019B00005D0A300F35801349847A542F9D100F0AF
:1019C000A1F9084E084D0024AD1BAD1005D0A300B1
:1019D000F35801349847A542F9D170BD101D00009D
:1019E000101D0000101D0000181D0000F0B50500BE
:1019F0000F2A2FD90B0003439B0734D116000C008C
:101A00000300103E350901352D01451927681F6077
:101A100067685F60A7689F60E7681034DF60103315
:101A20009D42F3D10F239E43103685198919134027
:101A3000032B1AD91E1F0023B4080134A400CF5869
:101A4000EF500433A342FAD10324A643331D2240AE
:101A5000C918ED18002A05D00023CC5CEC540133E2
:101A60009342FAD1F0BD0500F6E71A00F2E7C0464E
:101A7000F0B5830743D0541E002A3FD0CEB20200F7
:101A8000032502E01A00013C38D3531C16702B4288
:101A9000F8D1032C2AD9FF220A40150215432A0443
:101AA00015430F2C14D927001A00103F3E090136A8
:101AB00036019E19156055609560D56010329642CA
:101AC000F8D10F2297431037DB191440032C0DD99E
:101AD0001A00271FBE080136B6009E1920C2B24266
:101AE000FCD1032297430437DB191440002C05D0A6
:101AF000C9B21C19197001339C42FBD1F0BD14000E
:101B00000300C6E710B5830725D00378002B24D047
:101B10000300032102E01A78002A1AD001330B4295
:101B2000F9D119680E4A0F4C8A188A43224206D10D
:101B3000043319680A4A8A188A432242F8D01A00E4
:101B40001B78002B03D0013211780029FBD1101A29
:101B500010BD181AFCE70300E3E70020F8E7C046D1
:101B6000FFFEFEFE80808080034B10B5002B02D06C
:101B7000024800F005F810BD00000000911B0000B5
:101B800010B5010000230022002000F01FF810BD56
:101B900070B5094B094CE41AA41009D0084AA518DD
:101BA000AD00ED182B68013C9847043D002CF9D19D
:101BB00000F0B2F870BDC046241D0000281D0000D2
:101BC000FFFFFF3F7047C0467047C046F0B54E4626
:101BD0004546DE465746E0B5364D83B006002868D8
:101BE00098460F009146FFF7EDFF334B1C68A42386
:101BF0005B00E058002852D043681F2B13DC5A1CAE
:101C00000192002E28D1019A02339B0042601F509E
:101C10002868FFF7D9FF002003B03CBC90469946E6
:101C2000A246AB46F0BD254B002B3DD0C82040005E
:101C300000E000BF002837D0A42200235200A158A2
:101C400043600160A050403283500432835001331E
:101C500001930023002ED6D09A00924682444A4631
:101C6000882154466250C4225200914681444A461B
:101C70008739994012688B460A4394464A46614622
:101C80001160842241465200A150022EBBD10200B5
:101C90005C468D32FF3211680C431460B3E72000BC
:101CA0004D30FF30E050A7E72868FFF78DFF012097
:101CB0004042B1E730040020001D00000000000099
:101CC000600A0000420A0000FC0900001A09000036
:101CD000FC090000340A0000FC0900001A09000099
:101CE000420A0000420A0000340A00001A090000FB
:101CF000120900001209000012090000780C00000F
:101D000008000020F8B5C046F8BC08BC9E467047E5
:101D1000691B0000DD000000F8B5C046F8BC08BC37
:081D20009E467047B50000006B
:101D280040420F000000000000000000F402002004
:101D38005C030020C4030020000000000000000035
:101D4800000000000000000000000000000000008B
:101D5800000000000000000000000000000000007B
:101D6800000000000000000000000000000000006B
:101D7800000000000000000000000000000000005B
:101D8800000000000000000000000000000000004B
:101D9800000000000000000000000000000000003B
:101DA800000000000000000000000000000000002B
:101DB800000000000000000000000000000000001B
:101DC800000000000000000000000000000000000B
:101DD80001000000000000000E33CDAB34126DE6A8
:101DE800ECDE05000B000000000000000000000011
:101DF80000000000000000000000000000000000DB
:101E080000000000000000000000000000000000CA
:101E180000000000000000000000000000000000BA
:101E280000000000000000000000000000000000AA
:04215800C00400209F
:00000001FF
