:1000000088240020CD040000C5050000C5050000BF
:1000100000000000000000000000000000000000E0
:10002000000000000000000000000000C505000006
:100030000000000000000000C5050000C50500002C
:10004000C5050000C5050000C5050000C505000088
:10005000C5050000C5050000C5050000C505000078
:10006000C5050000C5050000C5050000C505000068
:10007000C5050000C5050000C5050000C505000058
:10008000C5050000C5050000C5050000C505000048
:10009000C505000000000000000000000104000091
:1000A000C5050000C5050000C5050000C505000028
:1000B0000000000010B5064C2378002B07D1054B3B
:1000C000002B02D0044800E000BF0123237010BDC4
:1000D0003404002000000000981A0000084B10B5FE
:1000E000002B03D00749084800E000BF0748036819
:1000F000002B00D110BD064B002BFBD09847F9E731
:100100000000000038040020981A0000981A00002F
:100110000000000080B582B000AF0200FB1D1A7025
:10012000064BFA1D127811001F220A40012191404E
:100130000A001A60C046BD4602B080BD00E100E082
:10014000B0B582B000AF02003960FB1D1A70FB1D14
:100150001B787F2B32D92F4CFB1D1B781A000F23E5
:100160001340083B99082B4AFB1D1B7818000F23EE
:100170000340083B9B0806339B00D31804331B68DD
:10018000FA1D1278100003220240D200FF20904096
:100190000200D2431A403B689B01FF201840FB1D20
:1001A0001B781D0003232B40DB00984003001A43FB
:1001B0008B1D9B00E31804331A6027E0164CFB1DCF
:1001C0001B785BB29B081449FA1D127852B2920850
:1001D000C03292005258F91D0978080003210140ED
:1001E000C900FF2088400100C94311403A689201CC
:1001F000FF201040FA1D1278150003222A40D20079
:10020000904002000A43C0339B001A51C046BD46CD
:1002100002B0B0BD00ED00E000E100E080B500AF4D
:10022000374A136A802149020B431362354B364A21
:100230005A80364A137802210B431370C046334B61
:100240005B7E1B06DB0FDBB2002BF8D12F4A537805
:100250000F218B43191C02230B435370C0462B4BB9
:100260005B7E1B06DB0FDBB2002BF8D1274A13693C
:1002700027490B401361C046244B5B7E1B06DB0FF6
:10028000DBB2002BF8D1214B802292009A80C0462D
:100290001E4B5B7E1B06DB0FDBB2002BF8D11B4A2B
:1002A00013691C490B40C02149010B431361C0462F
:1002B000164B5B7E1B06DB0FDBB2002BF8D1134A1B
:1002C000D37D01210B43D375C046104B5B7E1B06CB
:1002D000DB0FDBB2002BF8D1032117200E4B984720
:1002E00017200E4B98470E4B01221A700D4B0E4AE9
:1002F0001A600C4B1A680D4B1A60C046BD4680BD93
:1003000000040040000C00401E400000004000427D
:10031000FFFFFFF0FFE0FFFF4101000015010000BB
:100320005404002058040020E90300005004002079
:1003300080B582B000AF0200FB1D1A70124AFB1D8F
:100340001B781F210B40D9B213691F2001401F20C9
:1003500083430B431361C0460B4B5B7E1B06DB0FD5
:10036000DBB2002BF8D1084A137B02210B43137335
:10037000C046054B5B7E1B06DB0FDBB2002BF8D1C2
:10038000C046BD4602B080BD0040004280B582B08C
:1003900000AF7860074B1A68074B1B689A4204D17C
:1003A000044B7A681A60012300E000231800BD4660
:1003B00002B080BD500400205804002080B582B0F7
:1003C00000AF7860064B1A687B689A4203D1054BF0
:1003D0001A68034B1A60C046BD4602B080BDC046D5
:1003E000500400205804002080B582B000AF020005
:1003F000BB1D1A8000231800BD4602B080BD00005E
:1004000080B500AF2D4B1B78012B22D1C0462C4B61
:100410005B7E1B06DB0FDBB2002BF8D1284B5B8B1E
:10042000C046274B5B7E1B06DB0FDBB2002BF8D1EF
:10043000234A137B02210B431373C046204B5B7E80
:100440001B06DB0FDBB2002BF8D11C4B02221A700B
:1004500030E01A4B1B78022B2CD1C046184B5B7E28
:100460001B06DB0FDBB2002BF8D1164B1B68144ABE
:10047000528B92B210009847031E04D0114B1B6898
:100480001800114B9847C0460D4B5B7E1B06DB0FD7
:10049000DBB2002BF8D10A4B1B7BDB07DB0FC0461E
:1004A000074B5B7E1B06DB0FDBB2002BF8D1034B47
:1004B00001221A70C046BD4680BDC04654040020CB
:1004C0000040004250040020BD03000080B582B00F
:1004D00000AF2F4B7B602F4B3B607A683B689A42A2
:1004E0000CD007E03B681A1D3A607A68111D7960EC
:1004F00012681A603A68284B9A42F3D3274B3B6044
:1005000004E03B681A1D3A6000221A603A68244BE6
:100510009A42F6D3234B7B60234B7A68FF218A43B0
:100520009A60224A90235B000221D150204AD3785E
:1005300003218B43191C02230B43D3701C4AD3782D
:100540000C218B43191C08230B43D370194A937B4E
:1005500030218B43191C20230B439373154A937B43
:100560000C218B43191C08230B439373114A937B73
:1005700003218B43191C02230B4393730E4A5368C8
:1005800080210B4353600D4B98470D4B9847FEE776
:10059000981A0000000000203404002034040020D9
:1005A000880400200000000000ED00E00070004121
:1005B000005000410048004100400041491800003F
:1005C0001109000080B500AFFEE7000080B582B0E1
:1005D00000AF774A53681E218B4302210B435360BF
:1005E000744B744A926908210A439A61724B734AA8
:1005F0009A82714A938A02210B439382C0466E4BC2
:10060000DB6802221340FAD06D4B01221A70C046FB
:100610006B4B1B78DBB21A000123134005D0684BEB
:100620005B78DBB25BB2002BF2DB654B01229A6098
:10063000C046634B5B78DBB25BB2002BF9DB604BEF
:10064000604A5A60C0465E4B5B78DBB25BB2002BFF
:10065000F9DB5B4B8222D2015A80C046584B5B7853
:10066000DBB25BB2002BF9DB534A938C80218B43C6
:100670009384C046504BDB6810221340FAD04E4B97
:10068000514ADA62C0464C4BDB6810221340FAD064
:10069000494A494B9B8C9BB24C490B439BB2938478
:1006A000C046454BDB6810221340FAD0424A424B09
:1006B0009B8C9BB202210B439BB29384C0463E4B62
:1006C000DB6880221340FAD03B4BDB6840221340AA
:1006D000F5D0C046384BDB6810221340FAD0384BB7
:1006E00000229A60C046364B5B78DBB25BB2002BCF
:1006F000F9DB334B364A5A60C046314B5B78DBB28C
:100700005BB2002BF9DB2C4A136A32490B40802183
:1007100049000B431362284A136A80218B431362FA
:10072000274B03229A60264B2B4A5A60C046244B23
:100730005B78DBB25BB2002BF9DB1E4B00221A7236
:100740001C4B00225A721B4B00229A72194B00223A
:10075000DA72224B224A1A60224B1B68DB080722FE
:1007600013407B60204B1B68DB0E3B601D4B1B68FE
:100770005B01FF2213403A6813433B601B497B68CF
:100780009BB21B029AB2E023DB0013409AB23B6893
:100790009BB2FF2003409BB213439BB20B85044ADC
:1007A000536880210B435360C046BD4602B080BDF4
:1007B0000040004100040040000800400C0600001A
:1007C000000C004001050100B805FF7D040A00008F
:1007D00000070300FFFCFFFF0306010000000020EC
:1007E000006CDC0224608000206080000040004239
:1007F00080B500AF0F4942228B5C022003438B542B
:100800000C4B04225A600B49C8228B5C0220034324
:100810008B540849842280235B008B500549432276
:100820008B5C022003438B54024B08225A60C04663
:10083000BD4680BD0044004180B582B000AF786005
:100840000D4B18000D4B9847031E10D00C4B7A68C7
:100850001A600C4B00221A700A4B1B78DBB21A008C
:10086000094B9B5C1800094B9847012300E00023CB
:100870001800BD4602B080BDAD0800008D03000029
:100880005C0400206004002004000020310300000C
:1008900080B500AF044B1B78DBB2033B5A42534197
:1008A000DBB21800BD4680BD6004002080B582B078
:1008B00000AF0200BB1D1A80114B1A68114B1B7848
:1008C000DBB2591CC8B20F4908705B00D318BA1DBF
:1008D00012881A800B4B1B78DBB2022B0AD8094B0B
:1008E0001B78DBB21A00084B9B5C1800074B98473B
:1008F000002300E001231800BD4602B080BDC046C1
:100900005C0400206004002004000020310300008B
:10091000B0B586B000AF1023FB18294A11681960E2
:1009200092889A80274B9847274B9847274B9847A0
:100930001023FB181800264B9847C046254B9847B4
:10094000031EFBD01723FB1800221A702CE017237C
:10095000FB181C781723FB181A781023FB18520079
:10096000D35A1A001C4B100098471C4D1C4A1D4BB3
:10097000A84702000B00100019001B4D00221B4B62
:10098000A84702000B0011001A00194B08001100C3
:100990009847011C3B1DA200D1501723FB181A7861
:1009A0001723FB1801321A701723FB181B78022B30
:1009B000CDD91023FB181A881023FB181A80B7E72B
:1009C000E8190000CD0500001D020000F10700003D
:1009D00039080000910800005D1500005D1000005E
:1009E0006666666666660A40F509000000FEAF406E
:1009F000E1150000F0B557464546DE464E46E0B5E7
:100A00004C000E0387B0834692461D008046360B8D
:100A1000640DCF0F002C4FD06F4B9C4235D08023FC
:100A2000420F1B04F600134333439946C300984614
:100A30006A4B00269C460023644403932B031B0B44
:100A40009B466B00ED0F50465B0D01955ED0624AF0
:100A5000934253D05A46D1008022400F12040243E1
:100A60000A4393465246D1005C4A944600226344AE
:100A70003800684084460290E41A16430F2E00D9CD
:100A8000B4E0574BB6009B599F4603003343994649
:100A90006CD100239846023308260393CEE7CB4659
:100AA0004146039A0197022A65D1019B4A4C9C4614
:100AB0000023002298466BE00300334399464ED052
:100AC000002E00D1BCE1300000F0A0FE03000B3B83
:100AD0001C2B00DDACE11D22D31A5A460100DA407E
:100AE00008398E401300334399465B468B40984645
:100AF00000233C4C0026241A03939FE751465A4694
:100B0000114329D1002293460232B1E759460143ED
:100B10001ED05B46002B00D19EE1584600F076FEC9
:100B200003000B3B1C2B00DD8FE102005946083A05
:100B300091408B461D21CB1A5146D9400B00594696
:100B40000B4351469B469140264B00221B1A8FE7D0
:100B5000002301229B468BE75146032288E70023AE
:100B60009846013304260024039367E70323B14624
:100B700003930C2662E7032A00D15CE2019B012A61
:100B800000D0E4E113409C46002300240022984654
:100B900000211203130B0A0D12051A432305124CF0
:100BA00040462240134362465B00D2075B08134372
:100BB000190007B03CBC90469946A246AB46F0BD32
:100BC000002380229C4612039846034CE0E7002352
:100BD000014C00229846DBE7FF07000001FCFFFF05
:100BE000F01900000DFCFFFFFFFF0F80D94500D971
:100BF00039E100D134E1002346464D469A46013C96
:100C00005B460A0E1B021A430B02170C03931304D4
:100C10001B0C390028009046019300F06BFD020088
:100C2000019B83465A4328003900914600F0E8FDB5
:100C3000350C09040D43A9450DD95B464544013BDC
:100C4000A84500D93AE1A94500D837E102235B4223
:100C50009C464544E3444B46EB1A39001800049384
:100C600000F048FD019B0500434339000498994674
:100C700000F0C6FD330409041B0C0B43994509D948
:100C800043446A1E984500D91AE1994500D817E1F6
:100C9000023D43444A469B1A5A4612042A4303998A
:100CA0009346100C0A0C914609045A46090C4E460C
:100CB0000D001204120C45430591514372437043D9
:100CC00052190E0CB218954203D980256D02AC461C
:100CD0006044150C09041204090C281852188342A8
:100CE00000D2CEE000D1C8E01D1A53469E1AB2458C
:100CF00092415242AB1A9A46984500D117E1390009
:100D0000180000F0F7FC019B0500434339005046F2
:100D1000049300F075FD04980B04310C19438842CC
:100D200009D941446B1E884500D907E1884200D8A3
:100D300004E1023D4144049BCB1A1800390004939E
:100D400000F0D8FC019B824643433900049801938C
:100D500000F056FD01980B043104090C1943884238
:100D60000DD953464144013B884500D9E8E088420B
:100D700000D8E5E002235B429C464144E244019BEB
:100D80002D04CE1A51462943059D4F462A000B04D7
:100D9000080C1B0C5A4345437B4378435B19170CE3
:100DA000FB189D4203D980256D02AC4660441D0CA2
:100DB00012041B04120C28189B18864200D293E0E0
:100DC00000D18EE001231943A04BE318002B00DC77
:100DD00099E04A0700D09EE05A46D20106D55A460D
:100DE0009B4B1A4080239346DB00E318994A9342B9
:100DF00068DD0123029A984C1A40002394469846D5
:100E00000022C5E680224B46120313420AD05B46FD
:100E1000134206D11A431203120BAC4688468E4C7D
:100E2000B6E64B461A431203120BBC468A4CAFE699
:100E300003005A46283B9A4000239146984657E6BD
:100E4000584600F0E3FC203040E603005246283BC1
:100E50009A400021934677E600F0D8FC20305FE608
:100E6000884500D2C7E64B46DE075D0843465B086F
:100E70001E434346DB079A46C2E60025924500D34F
:100E800033E7039E5946B446E244B245AD416D4254
:100E90004544EB180139984507D2984200D97FE0C4
:100EA00000D1BCE01D1A8B461FE79845FAD1039D7F
:100EB0005545F2D943468B461D1A16E79B46CAE6AE
:100EC0001500E7E65A46C90852070A435B059046F3
:100ED0005C0D5A460123029952021940120B8C46AE
:100EE00056E6002B00D16FE746444A1EB04529D98B
:100EF0001100864200D065E7039A934200D061E773
:100F000062E7012149420120C21A382A21DD029BF1
:100F100003409C4638E60F220A40042A00D15BE7D2
:100F20000A00111D914292415242934454E7474BAB
:100F3000E318002BE5DD01225242F2E71D00FAE63C
:100F40009A461CE7B04239D86ED011003AE70293B6
:100F50003AE71F2A3CDC20239B1A0C005846994094
:100F600098404B1E99415B46D440D34020430843F0
:100F70001A00430709D00F230340042B05D00100BA
:100F8000081D88429B415B42D21813023AD50123C7
:100F9000029A01241A400023944698460022F7E55D
:100FA000022149428C46039DE344AC46E244AA45F3
:100FB000AD416D424544ED182D1A96E68A1E0399FF
:100FC0004D008D42894149424144761803958FE78F
:100FD0001F204042C31A5846D8400300202A28D078
:100FE00040205D46821A954029434A1E914119438B
:100FF000072300220B4009D00F2300220B400800DA
:10100000042BBDD1010053075202120BC90819432A
:10101000012388460299002419408C46B8E55245C0
:10102000BED88B46002560E6039D9D42C6D31100C5
:1010300062E70025D8E780225B4612031A43019B32
:101040001203120B9C468846034CA1E5FF030000E7
:10105000FFFFFFFEFE070000FF070000F0B5574648
:101060004546DE464E46E0B50C0398464E00230B3F
:1010700087B0070092469B46760DCD0F002E6BD0B1
:101080006D4B9E4235D080245B46420F2404DB002A
:1010900014431C43C3009946684BA3469C46002357
:1010A00000276644029343461C035A00DB0F504658
:1010B000240B520D984600D176E05F4B9A426DD0DA
:1010C0008023410F1B040B435C49E4008C461C4306
:1010D000C300002062444146B6186940721C019169
:1010E000944607430F2F00D9B0E0554ABF00D259AC
:1010F00097465B460343994600D087E000239B4612
:10110000023308270293CEE742460192022867D0B5
:10111000032800D10EE2012800D062E10023002460
:101120000022994601990140CDB2002112030B0D16
:10113000120B1B051343434A240513401C43640050
:10114000ED0764082C434846210007B03CBC90469C
:101150009946A246AB46F0BD034399464FD05B4645
:10116000002B00D189E1584600F050FB03000B3BF7
:101170001C2B00DD7AE11D22D31A3A0001005C46E7
:10118000DA4008398C4013008F4023439B46B94610
:1011900000232D4E0027361A029384E7534623433B
:1011A0002AD10024022096E75346234320D0002C66
:1011B00000D157E1200000F029FB03000B3B1C2B62
:1011C00000DD49E11D21CB1A51460200D9405346AA
:1011D000083A944093400C431B4A121A00207AE7C5
:1011E0000125019B144C1D400023002299469CE7D9
:1011F0000024002201206EE7534603206BE7002302
:101200009B4601330427002602934CE703238146C3
:101210000C27029347E780220023002512039946FA
:10122000054C82E75C464B4602986FE75C464B46AE
:10123000019502986AE7C046FF07000001FCFFFF26
:10124000301A0000FFFF0F800DFCFFFF4A464946A1
:10125000170C1A0C1B041B0C08041900000C41434A
:101260001500884619007D43794303958946290076
:10127000150045434D44029545462D0CAA46029D56
:101280005544A94506D98A46802149028946CA445F
:1012900051460391290C0491414609042D04090C7F
:1012A00088462900250C24044144240C0591210082
:1012B00041438846210079438A4668434146504469
:1012C0008146080C48446F43824503D98021490276
:1012D00089464F44010C89463900494402914146F0
:1012E0000F0404993F0C88460004C019804441460D
:1012F000049159460F0C0904090C884659438A4643
:1013000039005143894641464A435146090C8B46B0
:101310007B43D2185A44934203D980235B029B46F5
:10132000D94451460904090C8A46414661437C432D
:10133000130C12044B445244A1468A463C004146D9
:101340006C434D4351464D440F0C7D19A94503D9BB
:101350008021490288464444049F0399B846414489
:101360008B468345804141428846514608042F04FC
:10137000000C3F1858460299101889469042924135
:101380004F44BA46524299469346C244D144CB4454
:101390008F42BF41C245894199459B419345924146
:1013A0007F4249422D0C52420F435B4213437F1947
:1013B000FF185B463C19DB0D059A64021C4343028F
:1013C00013435D1EAB415A46C00D03435202134303
:1013D000E20156D501205A0803401343E2071343A4
:1013E00064085A48604400284DDD5A0709D00F228E
:1013F0001A40042A05D01A1D9A429B415B42E41808
:101400001300E20104D58020514AC000144060441A
:10141000504A904200DDE3E60125DB0862071A43EB
:101420006402019B9146220B4405640D1D407CE63D
:10143000802259461203114208D0144206D1224399
:101440001203120B45469946434C6EE65B461A431F
:101450001203120B404C68E603005446283B9C40A4
:101460000023B9E600F0D2F92030A6E60300283BBD
:101470009F400023BB4699468AE600F0C7F920301A
:1014800074E6B446ADE701252A1A382A06DD019B29
:1014900000241D4000230022994646E61F2A21DC35
:1014A00020252000AD1A1E00AB40A840D6405D1E8E
:1014B000AB4130431843D440430709D00F230340C6
:1014C000042B05D00300181D98429B415B42E41891
:1014D000230221D50125019B01241D400023002268
:1014E000994622E61F2521006D42281AC1400800B6
:1014F000202A1DD05F35AA1A944023435C1EA341C5
:10150000072503431D400022002D09D00F2200248F
:101510001A401800042AD6D1030065076402220B82
:10152000DB082B4301259946019B00241D40FCE567
:101530000024E2E7802201251203224301991203CD
:10154000120B0D409946044CEFE5C046FF03000026
:10155000FFFFFFFEFE070000FF07000070B5002838
:1015600030D0C317C4185C40C50F200000F04EF9FE
:10157000174B184A1B1AD21A1F2A18DD164AD21AFC
:101580009440002224035B05240B5B0D0021100016
:1015900024030A0D240B12052243104C1B05224084
:1015A00013435B00ED075B082B43190070BD21005E
:1015B00091400A000B21081AC4405B052403240B48
:1015C0005B0DE3E70025002300240022DEE7C04690
:1015D0001E0400003304000013040000FFFF0F800E
:1015E000F0B54C00640D0B03621C450F5B0A5205FD
:1015F0002B43C90FC500520D012A28DD3A4AA6180F
:10160000FE2E1BDC002E3EDD80010200501E8241BA
:101610006D0F2A43DB0013435A0704D00F221A40F0
:10162000042A00D004338022D2041A405AD0013652
:10163000FF2E03D09B015B0AF4B201E0FF240023DC
:101640005802E405400AC90720430843F0BD002CB6
:1016500007D01D43F2D08020DB0080040343FF2627
:10166000DAE72B4303D00523DB08FF2C03D05B0212
:101670005B0AE4B2E4E7002B32D08020C0030343CE
:101680005B025B0ADCE73200173214DB80221E2784
:1016900012041343BF1B1F2F0FDC144A94466444EB
:1016A0002A00A5402E00A340751EAE41FA403343E8
:1016B00013430026B0E70024D5E702225242961BCE
:1016C0001A00F240202F09D0094884466444A34000
:1016D0002B435D1EAB41002613439DE70023F7E734
:1016E0000023ADE73400BFE780FCFFFF82FCFFFF73
:1016F000A2FCFFFF002243088B4274D303098B42F4
:101700005FD3030A8B4244D3030B8B4228D3030CD1
:101710008B420DD3FF22090212BA030C8B4202D373
:101720001212090265D0030B8B4219D300E0090A9B
:10173000C30B8B4201D3CB03C01A5241830B8B42A4
:1017400001D38B03C01A5241430B8B4201D34B038D
:10175000C01A5241030B8B4201D30B03C01A5241F2
:10176000C30A8B4201D3CB02C01A5241830A8B4277
:1017700001D38B02C01A5241430A8B4201D34B0260
:10178000C01A5241030A8B4201D30B02C01A5241C4
:10179000CDD2C3098B4201D3CB01C01A5241830978
:1017A0008B4201D38B01C01A524143098B4201D3B2
:1017B0004B01C01A524103098B4201D30B01C01ADD
:1017C0005241C3088B4201D3CB00C01A5241830857
:1017D0008B4201D38B00C01A524143088B4201D384
:1017E0004B00C01A5241411A00D2014652411046E4
:1017F0007047FFE701B5002000F006F802BDC046C3
:101800000029F7D076E770477047C0461C210123B6
:101810001B04984201D3000C10391B0A984201D3D3
:10182000000A08391B09984201D30009043902A2B1
:10183000105C40187047C046040302020101010118
:10184000000000000000000070B50D4E0D4D00249A
:10185000AD1BAD1005D0A300F35801349847A54245
:10186000F9D100F007F9084E084D0024AD1BAD106A
:1018700005D0A300F35801349847A542F9D170BDB3
:10188000801A0000801A0000801A0000881A0000E8
:10189000034B10B5002B02D0024800F005F810BD34
:1018A00000000000B918000010B50100002300225C
:1018B000002000F01FF810BD70B5094B094CE41A68
:1018C000A41009D0084AA518AD00ED182B68013CFA
:1018D0009847043D002CF9D100F0D6F870BDC04601
:1018E000941A0000981A0000FFFFFF3F7047C0469F
:1018F0007047C046F0B54E464546DE465746E0B511
:10190000364D83B00600286898460F009146FFF7D1
:10191000EDFF334B1C68A4235B00E058002852D035
:1019200043681F2B13DC5A1C0192002E28D1019A08
:1019300002339B0042601F502868FFF7D9FF002048
:1019400003B03CBC90469946A246AB46F0BD254B41
:10195000002B3DD0C820400000E000BF002837D059
:10196000A42200235200A15843600160A0504032DD
:10197000835004328350013301930023002ED6D0CC
:101980009A00924682444A46882154466250C422B4
:101990005200914681444A468739994012688B46E5
:1019A0000A4394464A4661461160842241465200E9
:1019B000A150022EBBD102005C468D32FF3211686D
:1019C0000C431460B3E720004D30FF30E050A7E730
:1019D0002868FFF78DFF01204042B1E73004002066
:1019E000701A0000000000000A000A000A0000004F
:1019F000EC0B0000CE0B0000880B0000A60A0000D4
:101A0000880B0000C00B0000880B0000A60A000035
:101A1000CE0B0000CE0B0000C00B0000A60A000099
:101A20009E0A00009E0A00009E0A0000040E0000AC
:101A30004C1200000C1100000C11000008110000F5
:101A400024120000241200001612000008110000E9
:101A500024120000161200002412000008110000D9
:101A60002C1200002C1200002C1200003014000078
:101A700008000020F8B5C046F8BC08BC9E46704778
:101A800091180000DD000000F8B5C046F8BC08BCA5
:081A90009E467047B5000000FE
:101A980040420F000802030000000000F40200208A
:101AA8005C030020C40300200000000000000000C8
:101AB800000000000000000000000000000000001E
:101AC800000000000000000000000000000000000E
:101AD80000000000000000000000000000000000FE
:101AE80000000000000000000000000000000000EE
:101AF80000000000000000000000000000000000DE
:101B080000000000000000000000000000000000CD
:101B180000000000000000000000000000000000BD
:101B280000000000000000000000000000000000AD
:101B3800000000000000000000000000000000009D
:101B480001000000000000000E33CDAB34126DE63A
:101B5800ECDE05000B0000000000000000000000A3
:101B6800000000000000000000000000000000006D
:101B7800000000000000000000000000000000005D
:101B8800000000000000000000000000000000004D
:101B9800000000000000000000000000000000003D
:041EC800640400208E
:00000001FF
