S0120000446174615F436F6D5F322E7372656389
S113000070250020210500001906000019060000D3
S113001000000000000000000000000000000000DC
S113002000000000000000000000000019060000AD
S1130030000000000000000019060000A5350000C3
S11300401906000019060000190600001906000030
S11300501906000019060000190600001906000020
S11300601906000019060000190600001906000010
S11300701906000019060000C12B00001906000033
S113008019060000190600001906000019060000F0
S113009019060000000000000000000055040000E4
S11300A019060000190600001906000019060000D0
S11300B00000000010B5064C2378002B07D1054B37
S11300C0002B02D0044800E000BF0123237010BDC0
S11300D0400400200000000010600000084B10B530
S11300E0002B03D00749084800E000BF0748036815
S11300F0002B00D110BD064B002BFBD09847F9E72D
S113010000000000440400201060000010600000A3
S11301100000000080B582B000AF0200FB1D1A7021
S1130120064BFA1D127811001F220A40012191404A
S11301300A001A60C046BD4602B080BD00E100E07E
S1130140B0B582B000AF02003960FB1D1A70FB1D10
S11301501B787F2B32D92F4CFB1D1B781A000F23E1
S11301601340083B99082B4AFB1D1B7818000F23EA
S11301700340083B9B0806339B00D31804331B68D9
S1130180FA1D1278100003220240D200FF20904092
S11301900200D2431A403B689B01FF201840FB1D1C
S11301A01B781D0003232B40DB00984003001A43F7
S11301B08B1D9B00E31804331A6027E0164CFB1DCB
S11301C01B785BB29B081449FA1D127852B292084C
S11301D0C03292005258F91D0978080003210140E9
S11301E0C900FF2088400100C94311403A689201C8
S11301F0FF201040FA1D1278150003222A40D20075
S1130200904002000A43C0339B001A51C046BD46C9
S113021002B0B0BD00ED00E000E100E080B500AF49
S11302203D4A136A802149020B4313623B4B3C4A0B
S11302305A803C4A137802210B431370C046394B51
S11302405B7E1B06DB0FDBB2002BF8D1354A5378FB
S11302500F218B43191C02230B435370C046314BAF
S11302605B7E1B06DB0FDBB2002BF8D12D4A136932
S11302702D490B401361C0462A4B5B7E1B06DB0FE6
S1130280DBB2002BF8D1274B802292009A80C04623
S1130290244B5B7E1B06DB0FDBB2002BF8D1214A1B
S11302A0136922490B40C02149010B431361C04625
S11302B01C4B5B7E1B06DB0FDBB2002BF8D1194B0A
S11302C022229A70C046174B5B7E1B06DB0FDBB203
S11302D0002BF8D1134AD37D01210B43D375C046BB
S11302E0104B5B7E1B06DB0FDBB2002BF8D1032126
S11302F017200F4B984717200E4B98470E4B01229F
S11303001A700E4B0E4A1A600C4B1A680D4B1A6089
S1130310C046BD4680BDC04600040040000C0040FD
S11303201E40000000400042FFFFFFF0FFE0FFFF1F
S11303304101000015010000780400207C04002025
S11303403D0400007404002080B500AF0A4A13780D
S113035002218B431370C046074B5B7E1B06DB0FE9
S1130360DBB2002BF8D1054B1B681800044B9847EF
S1130370C046BD4680BDC046004000427404002013
S11303801104000080B582B000AF0200FB1D1A709A
S1130390124AFB1D1B781F210B40D9B213691F2081
S11303A001401F2083430B431361C0460B4B5B7E0C
S11303B01B06DB0FDBB2002BF8D1084A137B0221AA
S11303C00B431373C046054B5B7E1B06DB0FDBB28E
S11303D0002BF8D1C046BD4602B080BD00400042AB
S11303E080B582B000AF7860074B1A68074B1B6872
S11303F09A4204D1044B7A681A60012300E0002376
S11304001800BD4602B080BD740400207C040020A6
S113041080B582B000AF7860064B1A687B689A4258
S113042003D1054B1A68034B1A60C046BD4602B09F
S113043080BDC046740400207C04002080B582B0D6
S113044000AF0200BB1D1A8000231800BD4602B095
S113045080BD000080B500AF2D4B1B78012B22D14D
S1130460C0462C4B5B7E1B06DB0FDBB2002BF8D1A6
S1130470284B5B8BC046274B5B7E1B06DB0FDBB236
S1130480002BF8D1234A137B02210B431373C0467C
S1130490204B5B7E1B06DB0FDBB2002BF8D11C4B21
S11304A002221A7030E01A4B1B78022B2CD1C04662
S11304B0184B5B7E1B06DB0FDBB2002BF8D1164B0F
S11304C01B68144A528B92B210009847031E04D042
S11304D0114B1B681800114B9847C0460D4B5B7EAF
S11304E01B06DB0FDBB2002BF8D10A4B1B7BDB07AF
S11304F0DB0FC046074B5B7E1B06DB0FDBB2002B1A
S1130500F8D1034B01221A70C046BD4680BDC046D7
S1130510780400200040004274040020110400000C
S113052080B582B000AF2F4B7B602F4B3B607A6865
S11305303B689A420CD007E03B681A1D3A607A681F
S1130540111D796012681A603A68284B9A42F3D3F5
S1130550274B3B6004E03B681A1D3A6000221A6096
S11305603A68244B9A42F6D3234B7B60234B7A6838
S1130570FF218A439A60224A90235B000221D150D2
S1130580204AD37803218B43191C02230B43D370D5
S11305901C4AD3780C218B43191C08230B43D370BA
S11305A0194A937B30218B43191C20230B439373EB
S11305B0154A937B0C218B43191C08230B4393731B
S11305C0114A937B03218B43191C02230B4393731E
S11305D00E4A536880210B4353600D4B98470D4BD3
S11305E09847FEE710600000000000203C04002053
S11305F0400400206C0500200000000000ED00E035
S1130600007000410050004100480041004000419A
S1130610A95B00000117000080B500AFFEE70000F1
S113062080B582B000AF774A53681E218B43022104
S11306300B435360744B744A926908210A439A61CC
S1130640724B734A9A82714A938A02210B439382B2
S1130650C0466E4BDB6802221340FAD06D4B012278
S11306601A70C0466B4B1B78DBB21A00012313408F
S113067005D0684B5B78DBB25BB2002BF2DB654BD9
S113068001229A60C046634B5B78DBB25BB2002BFD
S1130690F9DB604B604A5A60C0465E4B5B78DBB264
S11306A05BB2002BF9DB5B4B8222D2015A80C0463D
S11306B0584B5B78DBB25BB2002BF9DB534A938C6B
S11306C080218B439384C046504BDB681022134037
S11306D0FAD04E4B514ADA62C0464C4BDB681022CA
S11306E01340FAD0494A494B9B8C9BB24C490B436B
S11306F09BB29384C046454BDB6810221340FAD06A
S1130700424A424B9B8C9BB202210B439BB2938483
S1130710C0463E4BDB6880221340FAD03B4BDB687B
S113072040221340F5D0C046384BDB6810221340FA
S1130730FAD0384B00229A60C046364B5B78DBB265
S11307405BB2002BF9DB334B364A5A60C046314B5F
S11307505B78DBB25BB2002BF9DB2C4A136A3249BB
S11307600B40802149000B431362284A136A8021FD
S11307708B431362274B03229A60264B2B4A5A6001
S1130780C046244B5B78DBB25BB2002BF9DB1E4B1B
S113079000221A721C4B00225A721B4B00229A72BE
S11307A0194B0022DA72224B224A1A60224B1B6830
S11307B0DB08072213407B60204B1B68DB0E3B6089
S11307C01D4B1B685B01FF2213403A6813433B60D7
S11307D01B497B689BB21B029AB2E023DB001340E7
S11307E09AB23B689BB2FF2003409BB213439BB277
S11307F00B85044A536880210B435360C046BD46B1
S113080002B080BD004000410004004000080040E8
S11308100C060000000C004001050100B805FF7D36
S1130820040A000000070300FFFCFFFF03060100A9
S113083000000020006CDC02246080002060800046
S11308400040004290B583B000AF040008001100DE
S1130850FB1D221C1A70BB1D021C1A707B1D0A1C76
S11308601A70194BFA1D12781A70174BBA1D1278A8
S11308705A70154B7A1D12789A70144942228B5C77
S1130880022003438B54114B04225A600F49C8229F
S11308908B5C022003438B540C49842280235B002D
S11308A08B500A49C9228B5C022003438B540749AD
S11308B0842280239B008B50054B00221A70C04673
S11308C0BD4603B090BDC0468804002000440041EA
S11308D08404002080B500AF024B00221A70C04689
S11308E0BD4680BD8404002080B582B000AF78602E
S11308F00D4B18000D4B9847031E10D00C4B7A6813
S11309001A600C4B00221A700A4B1B78DBB21A00D7
S1130910094B9B5C1800094B9847012300E0002316
S11309201800BD4602B080BD5D090000E10300006F
S113093080040020840400200400002085030000BB
S113094080B500AF044B1B78DBB2033B5A425341E2
S1130950DBB21800BD4680BD8404002080B582B09F
S113096000AF0200BB1D1A801B4B1B78DBB21A00C0
S11309701A4B9B5C002B0DD0194B1A68164B1B7835
S1130980DBB2591CC8B2144908705B00B91D098850
S113099099520BE0124B1A680F4B1B78DBB2591CAF
S11309A0C8B20D4908705B00002199520A4B1B78AC
S11309B0DBB2022B0AD8084B1B78DBB21A00094BB6
S11309C09B5C1800084B9847002300E001231800A3
S11309D0BD4602B080BDC0468404002088040020C7
S11309E080040020040000208503000080B582B04C
S11309F000AFFB1D01221A7010E0FB1D1B781900CB
S1130A00E0200F4B98471E200E4B98471C200D4B9F
S1130A109847FA1DFB1D1B78DB181370FB1D1B7810
S1130A20002BEAD1084B00221A70084B00221A70DE
S1130A30074B00221A70C046BD4602B080BDC046B6
S1130A40610D0000950E000094040020960400201F
S1130A509504002080B582B000AFFB1D01221A70FE
S1130A6010E0FB1D1B781900E0200F4B98471E2057
S1130A700E4B98471C200D4B9847FA1DFB1D1B7805
S1130A80DB181370FB1D1B78002BEAD1084B0022E6
S1130A901A70084B00221A70074B00221A70C046C5
S1130AA0BD4602B080BDC046610D0000290F0000A4
S1130AB094040020960400209504002080B582B0A0
S1130AC000AF7860064B7A681A60064B00221A70F1
S1130AD0054B00221A7001231800BD4602B080BDE8
S1130AE090040020940400209504002080B582B076
S1130AF000AFFB1D00221A705D4B1B78182B00D928
S1130B00AFE09A005B4BD3181B689F468021E0201E
S1130B10594B9847A5E0594B1B6819001E20584BA8
S1130B2098479EE0554B1B68063319001C20544B14
S1130B30984796E02021E0204F4B984791E04F4B97
S1130B401B680C3319001E204D4B984789E04B4B12
S1130B501B681E3319001C20494B984781E0402133
S1130B60E020454B98477CE0444B1B681833190040
S1130B701C20434B984774E0404B1B681233190008
S1130B801E203F4B98476CE01021E0203A4B9847D9
S1130B9067E03A4B1B68243319001E20384B9847F2
S1130BA05FE0364B1B682A3319001C20344B9847EE
S1130BB057E00421E020304B984752E02F4B1B684C
S1130BC0303319001E202E4B98474AE02B4B1B68EC
S1130BD0423319001C202A4B984742E00821E020A8
S1130BE0254B98473DE0254B1B683C3319001C20DE
S1130BF0234B984735E0214B1B68363319001E20E0
S1130C001F4B98472DE00221E0201B4B984728E01A
S1130C101A4B1B68483319001E20194B984720E0D3
S1130C20164B1B684E3319001C20154B984718E0CF
S1130C300121E020104B984713E0104B1B685433FC
S1130C4019001E200E4B98470BE00C4B1B685A33BF
S1130C5019001C200A4B984703E0FB1D01221A705F
S1130C60C046FB1D1B781800BD4602B080BDC046BF
S1130C7094040020AC5D0000850C0000900400206A
S1130C80F50C000080B582B000AF0200FB1D1A70A5
S1130C90BB1D0A1C1A70134B1B78002B0DD1BB1DF6
S1130CA01A78FB1D1B78110018000F4B9847031E80
S1130CB014D00C4B01221A7010E00A4B1B78012B44
S1130CC00CD10A4B9847031E08D0064B00221A7019
S1130CD0074B1B780133DAB2054B1A70C046BD4688
S1130CE002B080BD95040020AD0D0000050E00008B
S1130CF09404002090B583B000AF02003960FB1D5E
S1130D001A70134B1B78002B0CD13A68FB1D187812
S1130D10062306210F4CA047031E14D00C4B0122BE
S1130D201A7010E00A4B1B78012B0CD10A4B984720
S1130D30031E08D0064B00221A70084B1B7801339F
S1130D40DAB2064B1A70C046BD4603B090BDC04629
S1130D5095040020B10F00004D1000009404002001
S1130D6080B582B000AF0200FB1D1A70BB1D0A1CC7
S1130D701A70C0460B4B9847031EFBD1C046BB1DDF
S1130D801A78FB1D1B7811001800074B9847031EA7
S1130D90F5D0C046034B9847031EFBD1C046BD4661
S1130DA002B080BDB5150000AD0D000080B582B065
S1130DB000AF0200FB1D1A70BB1D0A1C1A700C4BFD
S1130DC018000C4B9847031E0DD00B4BBA1D12781C
S1130DD01A700A4B00221A70FB1D1B781800084B6E
S1130DE09847012300E000231800BD4602B080BDEF
S1130DF0210E0000D914000097040020980400205C
S1130E00ED13000080B500AF044B1B78023B5A423F
S1130E105341DBB21800BD4680BDC0469804002093
S1130E2080B582B000AFFB1D00221A70144B1B78F2
S1130E30002B02D0012B0DD01CE0124B9847031E4F
S1130E4015D00F4B01221A700F4B1B7818000F4B53
S1130E5098470FE00B4B9847031E0AD0084B022219
S1130E601A70FB1D01221A70094B984702E0C04614
S1130E7000E0C046FB1D1B781800BD4602B080BDD3
S1130E80980400202D14000097040020A5140000ED
S1130E909515000080B582B000AF0200FB1D1A70EA
S1130EA0FB1D1B781800174B9847174B00221A702C
S1130EB0C046164B9847031EFBD1C046144B18007E
S1130EC0144B9847031EF9D0134B00221A70FB1DD4
S1130ED01B781800114B9847C0460C4B9847031ECB
S1130EE0FBD10F4B00221A70074B00221A700D4BD6
S1130EF0FA1D12781A70084B00221A70C046BD46BB
S1130F0002B080BD290F0000A4040020B515000024
S1130F1069100000D91400009D040020ED130000A6
S1130F209C040020A504002080B582B000AF02001C
S1130F30FB1D1A70164B00221A70C046154B9847B9
S1130F40031EFBD1C046144B1800144B9847031ED4
S1130F50F9D0134B00221A70FB1D1B781800114B9B
S1130F609847C0460B4B9847031EFBD10E4B0022FB
S1130F701A70074B00221A700C4BFA1D12781A7063
S1130F80074B00221A70C046BD4602B080BDC04661
S1130F90A4040020B5150000ED100000D9140000D1
S1130FA09D040020ED1300009C040020A5040020F3
S1130FB090B583B000AF040008003A601900FB1D2F
S1130FC0221C1A70BB1D021C1A707B1D0A1C1A708D
S1130FD07B1D1B78002B21D0134B1800134B984713
S1130FE0031E1BD0124BBA1D12781A70114B7A1DB6
S1130FF012781A70104B02221A70104BFA1D1278D4
S11310001A700F4B3A681A600E4B00221A70FB1DBF
S11310101B7818000C4B9847012300E000231800AC
S1131020BD4603B090BDC04671110000D914000044
S11310309C0400209E040020A4040020A504002099
S1131040A00400209D040020ED13000080B500AF33
S1131050044B1B78DBB2053B5A425341DBB2180008
S1131060BD4680BDA404002080B582B000AFFB1D46
S113107000221A70194B1B78DBB2012B19D01D2BDF
S11310800CD0002B24D1164B9847031E1BD0134BB6
S11310901D221A701D20134B984719E0104B9847D6
S11310A0031E12D00D4B01221A70C8200D4B984715
S11310B00EE00B4B9847031E09D00B4B9847FB1DC2
S11310C001221A7004E0C04602E0C04600E0C046B7
S11310D0FB1D1B781800BD4602B080BDA40400208F
S11310E02D140000A51400009515000080B582B0F1
S11310F000AFFB1D00221A70194B1B78DBB2012BC9
S113110019D01D2B0CD0002B24D1164B9847031E4D
S11311101BD01D20144B9847114B1D221A7019E047
S1131120104B9847031E12D000200F4B98470C4BCE
S113113001221A700EE00B4B9847031E09D00B4B8B
S11311409847FB1D01221A7004E0C04602E0C04625
S113115000E0C046FB1D1B781800BD4602B080BDF0
S1131160A40400202D140000A5140000951500000F
S113117090B583B000AFFB1D00221A70394B1B7869
S1131180DBB2052B00D967E09A00374BD3181B68F4
S11311909F46364B9847031E55D0324B01221A7096
S11311A0334B1B781800334B984755E02F4B984727
S11311B0031E4AD02B4B03221A7033202E4B984720
S11311C04AE02A4B9847031E41D0264B04221A704A
S11311D02A4B1B7818002A4B98473DE0294B984727
S11311E0031E36D0284B1B781A00284B1B78DBB221
S11311F0013B9A4211DABC1D254B9847030023702A
S1131200244B1A68204B1B78591CC8B21E4908701D
S1131210D318BA1D12781A701EE0124B05221A70E8
S1131220184B9847031E16D01B4B9847194B1B6845
S1131230154A12789C18164B984703002370FB1D1F
S113124001221A7008E0C04606E0C04604E0C04629
S113125002E0C04600E0C046FB1D1B781800BD46F6
S113126003B090BDA4040020105E00002D14000003
S11312709C040020A514000001290000A5040020FE
S1131280A1130000411400009D0400209E040020CE
S113129055140000A00400205915000080B582B048
S11312A000AF7860114B124A1A60104B104A5A6012
S11312B0104B00221A70104B00221A700F4B0022A0
S11312C01A700F4B00221A700E4B00221A700E4B2C
S11312D000221A700D4B0E4A1A600E4B0C4A1A600B
S11312E00D4B9847C046BD4602B080BDA8040020FF
S11312F05D160000BC040020B2040020B3040020EA
S1131300B4040020BD040020B0040020B804002070
S113131029160000C0040020E515000080B500AFC8
S11313200C4B1B6818000C4B98470C4B00221A708E
S11313300B4B00221A700B4B00221A700A4B00222E
S11313401A700A4B00221A70094B00221A70C04608
S1131350BD4680BDC004002025150000BC0400204B
S1131360B2040020B3040020B4040020BD04002013
S1131370B004002080B500AF074B1B78DBB2002B14
S113138004D0054B00221A70002302E0034B984757
S113139003001800BD4680BDB1040020B51500004F
S11313A080B582B000AF0200FB1D1A700A4B012207
S11313B01A700A4BFA1D12781A70094B01221A701E
S11313C03420084B9847084B01221A70C046180075
S11313D0BD4602B080BDC046BC040020B20400205B
S11313E0BD04002001290000B104002080B582B0B2
S11313F000AF0200FB1D1A70084B01221A70084B43
S1131400FA1D12781A703120064B9847064B0122B8
S11314101A70C0461800BD4602B080BDBC0400204E
S1131420B204002001290000B104002080B500AFFF
S1131430024B984703001800BD4680BDA128000058
S113144080B500AF024B984703001800BD4680BD2D
S1131450B928000090B583B000AF0D4B1B78DBB208
S1131460002B0DD0FC1D0B4B9847030023700A4B37
S113147001221A703520094B9847FB1D1B7802E0A6
S1131480074B1B78DBB21800BD4603B090BDC046C5
S1131490BD040020D1280000B4040020012900006C
S11314A0B004002080B582B000AF0200FB1D1A70AA
S11314B0064B01221A70064BFA1D12781A7032205C
S11314C0044B9847C046BD4602B080BDBC04002012
S11314D0B20400200129000080B582B000AF78601A
S11314E00B4B9847031E0ED10A4B186859680A4BD8
S11314F09847031E07D0094B01221A70084B7A68DB
S11315001A60012300E000231800BD4602B080BD2C
S1131510B5150000A804002051290000B1040020E2
S1131520C004002080B582B000AF7860064B186814
S11315305968064B9847064B1A68064B1A60C04612
S1131540BD4602B080BDC046A8040020112A000098
S1131550B8040020C004002080B500AF084B01226D
S11315601A70084B00221A70074B984703001A00A0
S1131570064B1A703620064B9847C046BD4680BDC0
S1131580B4040020BD040020D1280000B0040020D1
S11315900129000080B500AF044B01221A703320EA
S11315A0034B9847C046BD4680BDC046B4040020E6
S11315B00129000080B500AF054B1A68054B1B6874
S11315C0D31A5A1E9341DBB21800BD4680BDC046F3
S11315D0C0040020B804002080B500AF0023180028
S11315E0BD4680BD80B500AF094B1B681800094B90
S11315F09847094B00221A70084B00221A70084BB6
S113160000221A70074B01221A70C046BD4680BDE5
S1131610C004002025150000B4040020BC040020F0
S1131620BD040020B104002080B500AF084B9847EA
S1131630031E01D0002307E0064B9847031E03D086
S1131640054B98470023FFE71800BD4680BDC04600
S11316502D140000411400005514000080B500AFA3
S11316601D4B01221A701D4B1B78DBB2002B10D0CE
S11316701A4B00221A701A4B1B78DBB21800194B54
S113168098470023164A191C1170174A191C117027
S11316901FE0154B1B78DBB2002B04D0124B002249
S11316A01A70002315E0114B9847031E01D0012343
S11316B00FE00F4B1B689847031E09D00D4B1868A9
S11316C059680D4B98470A4B1B6818000B4B9847F9
S11316D000231800BD4680BDB1040020BC040020D6
S11316E0B204002001290000B4040020D915000030
S11316F0C0040020A8040020112A000025150000C1
S1131700B0B5A6B000AF002300248022BA1813603D
S11317105460002300249022BA18136054608F236D
S1131720FB1800221A708E23FB1800221A708D23D6
S1131730FB1800221A708C23FB1803221A708B23C7
S1131740FB1800221A7010E08B23FB181B78BA4A8E
S1131750DB00D21800230024136054608B23FB1891
S11317601A788B23FB1801321A708B23FB181B7811
S1131770042BE9D9B14A0123002413605460AF4A11
S1131780142300249360D460AC4A1423002413610E
S11317905461AA4A642300249361D461A84B9847F6
S11317A0A84B9847A84B1800A84B9847A84B18007B
S11317B0A84B9847A44B1800A74B9847A74B9847AA
S11317C0A74B1B78DBB24D2B00D1E5E204DC432BA5
S11317D000D161E100F0C0FD532B05D0542B01D1A1
S11317E000F01CFC00F0B8FD9E4BFB67964B180004
S11317F0964B9847FA235B0018009B4B9847944BF1
S11318001800944B9847C046FB6F19007420974BFF
S11318109847031EF8D08C4B18008F4B98478F23A2
S1131820FB1800221A70844A0023002413605460B9
S1131830824A01230024136054600123002490226F
S1131840BA1813605460854B984701220121012086
S1131850874B98478C23FB1803221A70764A00237F
S1131860002413615461754A642300241361546194
S11318708D23FB1800221A706F4A00230024936101
S1131880D4616E4A32230024136154618020794B61
S11318909847794B00221A70B7E0784B98470300B9
S11318A00C008022BA1813605460634B5C681B6898
S11318B08022BA1811685268C91AA2415F4B5C6849
S11318C01B68A24202D838D1994236D98F23FB181B
S11318D01B78002B02D0012B0CD02EE07423FB18B4
S11318E01800674B9847031E24D08F23FB1801224E
S11318F01A701FE0634B9847031E1DD04E4B1968A6
S11319005A684E4B5C681B685B1854414A4A136022
S113191054608F23FB1800221A709023FB185C6814
S11319201B68012100225B1854419022BA181360ED
S1131930546001E0C04600E0C0463F4B5C691B694F
S11319409022BA1811685268C91AA2413B4B5C69CB
S11319501B69A24202D81ED199421CD98C23FB18C0
S11319601B78032B02D0042B05D014E08C23FB1826
S113197004221A700FE0304B19695A692F4B5C69C5
S11319801B695B1854412C4A136154618C23FB1866
S113199003221A70C046284BDC699B699022BA184E
S11319A011685268C91AA241244BDC699B698D20D5
S11319B038188D257D192D780570A24203D824D1BD
S11319C0994200D821E08D23FB181B788D22BA1888
S11319D08D21791809781170002B02D0012B05D0C4
S11319E013E08D23FB1801221A700EE0124B996943
S11319F0DA69124BDC699B695B1854410E4A9361A6
S1131A00D4618D23FB1800221A701B4B1B78DBB2A8
S1131A10002B00D141E71C4B98470B4B18000E4B91
S1131A2098471A4B98471A4B98478020194B984768
S1131A30154B984700F09CFCC8040020F8040020D3
S1131A40210600002135000040420F004D26000011
S1131A50E1240000AD2A00009D1200001D020000D8
S1131A6007000020285E000061350000C523000047
S1131A7045080000252C00005C04002049350000C6
S1131A80E9080000410900001D130000490300009B
S1131A90D5080000ED2C0000A74BFB67A74B1800EE
S1131AA0A74B9847A54B1800A64B9847FA235B0011
S1131AB01800A54B9847A54B1800A54B9847C0465E
S1131AC0FB6F19007420A34B9847031EF8D09B4B5F
S1131AD018009C4B98478F23FB1800221A709E4ACB
S1131AE000230024136054609C4A012300241360E3
S1131AF05460002300249022BA1813605460984B59
S1131B009847012201210120964B98478C23FB180A
S1131B1000221A70904A00230024136154618F4AF2
S1131B2032230024136154618D23FB1802221A709E
S1131B30894A002300249361D461884A3223002413
S1131B409361D4618020884B9847884B00221A7097
S1131B50DCE0874B984703000C008022BA1813601E
S1131B6054607D4B5C681B688022BA181168526807
S1131B70C91AA241794B5C681B68A24202D856D1AB
S1131B80994254D98F23FB181B78012B14D002DC03
S1131B90002B05D04BE0022B17D0032B22D046E0BC
S1131BA07423FB181800734B9847031E3AD08F23F5
S1131BB0FB1801221A7035E06F4B9847031E33D08F
S1131BC08F23FB1802221A702EE07423FB181900CD
S1131BD06520604B9847031E28D08F23FB180322EF
S1131BE01A7023E0654B1B78002B20D08F23FB1841
S1131BF000221A70584B19685A68584B5C681B6865
S1131C005B185441544A136054609023FB185C6879
S1131C101B68012100225B1854419022BA181360FA
S1131C20546004E0C04602E0C04600E0C0464A4BAF
S1131C305C691B699022BA1811685268C91AA241DA
S1131C40464B5C691B69A24202D822D1994220D931
S1131C508C23FB181B78002B02D0012B05D018E035
S1131C608C23FB1801221A7013E03B4B19695A6943
S1131C703A4B5C691B695B185441374A13615461E0
S1131C808C23FB1800221A708D23FB1800221A7073
S1131C90C046314BDC699B699022BA1811685268BE
S1131CA0C91AA2412D4BDC699B69A24203D82DD1EC
S1131CB0994200D82AE08D23FB181B78012B10D001
S1131CC0022B22D0002B00D020E03B1D19008020E5
S1131CD02B4B9847031E19D08D23FB1801221A7031
S1131CE014E0284B9847031E10D01B4B9969DA69FE
S1131CF01A4BDC699B695B185441174A9361D461A0
S1131D008D23FB1802221A7000E0C046174B1B7883
S1131D10DBB2002B00D11CE71B4B9847074B180084
S1131D20084B9847194B9847194B98478020194BF3
S1131D309847154B98471BE3445E000040420F0050
S1131D404D2600009D12000061350000E1240000D2
S1131D50AD2A0000C5230000C8040020F8040020B8
S1131D601D02000045080000252C00005C04002032
S1131D7049350000E9080000410900005D04002025
S1131D805D2D0000B92D00001D1300004903000063
S1131D90D5080000ED2C0000CB4B1800CB4B984726
S1131DA0C94B1800CA4B9847FA235B001800C94B6B
S1131DB09847C94B1800C94B9847C94BFB67C046A5
S1131DC0FB6F19007420C74B9847031EF8D0BE4B15
S1131DD01800BF4B98478E23FB1800221A70C24A82
S1131DE0002300249360D460C04A3223002493600B
S1131DF0D460002300249022BA1813605460BC4BB2
S1131E0098478D23FB1800221A70B74A0023002438
S1131E109361D461B54A012300249361D461802085
S1131E20B44B9847B44B984703000C00AE4A136276
S1131E305462AE4AB14B002413625462B04B002288
S1131E401A70D7E0AC4B984703000C008022BA18F4
S1131E5013605460A44BDC689B688022BA18116834
S1131E605268C91AA241A14BDC689B68A24202D8FD
S1131E7059D1994257D98E23FB181B78012B14D0C2
S1131E8002DC002B05D04EE0022B17D0032B23D00D
S1131E9049E01423FB1818009A4B9847031E3BD0C3
S1131EA08E23FB1801221A7036E0974B9847031EC5
S1131EB034D08E23FB1802221A702FE03A1D14230B
S1131EC0FB1811001800914B9847031E28D08E234D
S1131ED0FB1803221A7023E08D4B9847031E21D070
S1131EE08E23FB1800221A707F4B9968DA687F4BA7
S1131EF0DC689B685B1854417B4A9360D4609023F0
S1131F00FB185C681B68012100225B185441902275
S1131F10BA181360546005E0C04604E0C04602E00D
S1131F20C04600E0C046704BDC699B699022BA1839
S1131F3011685268C91AA2416C4BDC699B69A242C0
S1131F4002D82CD199422AD98D23FB181B78002B57
S1131F5002D0012B0CD022E03B1D190080206D4BD8
S1131F609847031E18D08D23FB1801221A7013E022
S1131F70694B9847031E11D08D23FB1800221A7059
S1131F80594B9969DA69594BDC699B695B1854416F
S1131F90554A9361D46101E0C04600E0C046524B0B
S1131FA05C6A1B6A8022BA1811685268C91AA24175
S1131FB04E4B5C6A1B6AA24203D81BD1994200D8DB
S1131FC018E0564B9847031E03D1554B9847031E00
S1131FD005D0544B57221A70494B01221A70424BB8
S1131FE0196A5A6A414B5C6A1B6A5B1854413E4A3F
S1131FF013625462424B1B78DBB2002B00D121E701
S1132000494B9847304B1800314B9847474B9847FA
S11320108020474B9847444B9847A9E1454BFB67C1
S1132020294B1800294B9847FA235B001800294BC9
S11320309847294B1800294B9847C046FB6F190055
S11320407420284B9847031EF8D01F4B1800204BD0
S11320509847002300249022BA18136054608F23F9
S1132060FB1800221A70204A0023002413605460D5
S11320701E4A01230024136054602F4B9847012209
S1132080012101202D4B98478E23FB1800221A7042
S1132090154A002300249360D460144A14230024B6
S11320A09360D460124B9847134B984703000C007D
S11320B00D4A136254620D4A104B00241362546299
S11320C00F4B00221A7032E140420F004D260000EF
S11320D09D12000061350000E1240000AD2A0000DB
S11320E0605E0000C5230000C8040020F80400203E
S11320F0ED090000252C000049350000881300007C
S11321005C040020BD0A0000ED0A0000D52D00008B
S1132110092E00005D2D0000B92D0000751300008C
S113212075280000070000201D130000550A000058
S1132130ED2C0000785E00001D0200004508000040
S11321408C4B984703000C008022BA18136054602B
S1132150894B5C681B688022BA1811685268C91AD6
S1132160A241864B5C681B68A24202D858D19942AE
S113217056D98F23FB181B78012B14D002DC002BBB
S113218005D04DE0022B17D0032B22D048E0742356
S1132190FB1818007A4B9847031E3AD08F23FB187C
S11321A001221A7035E0774B9847031E33D08F23F2
S11321B0FB1802221A702EE07423FB181900652004
S11321C0714B9847031E28D08F23FB1803221A70E3
S11321D023E06E4B1B78002B21D08F23FB180022A9
S11321E01A70654B19685A68644B5C681B685B1805
S11321F05441614A136054609023FB185C681B6867
S1132200012100225B1854419022BA1813605460D3
S113221005E0C04604E0C04602E0C04600E0C04617
S1132220554BDC689B689022BA1811685268C91A29
S1132230A241524BDC689B68A24202D84CD199421D
S11322404AD98E23FB181B78012B14D002DC002BF7
S113225005D041E0052B17D0062B22D03CE01423F7
S1132260FB1818004A4B9847031E2ED08E23FB18E8
S113227001221A7029E0474B9847031E27D08E236A
S1132280FB1805221A7022E01423FB181900682099
S11322903D4B9847031E1CD08E23FB1806221A7050
S11322A017E03D4B1B78002B15D08E23FB18002222
S11322B01A70314B9968DA68304BDC689B685B189C
S11322C054412D4A9360D46005E0C04604E0C04602
S11322D002E0C04600E0C046274B5C6A1B6A8022CD
S11322E0BA1811685268C91AA241244B5C6A1B6A65
S11322F0A24203D81BD1994200D818E0274B984733
S1132300031E03D1264B9847031E05D0254B5722A5
S11323101A70254B01221A70174B196A5A6A174B07
S11323205C6A1B6A5B185441134A136254621E4B65
S11323301B78DBB2002B00D102E71C4B98471C4BE7
S113234018001C4B98471C4B98471C4B98471C4B38
S11323509847164B98470BE0134B00221A70114B09
S113236057221A70C046104B1B78DBB2002BFAD0F0
S1132370FFF726FA49350000C8040020F8040020BD
S1132380E908000041090000C52300005D040020A5
S1132390BD0A0000ED0A00005E0400207513000071
S11323A075280000070000205C0400201D130000B5
S11323B040420F009D120000550A0000490300002E
S11323C0D508000080B582B000AF02003960FB1D63
S11323D01A70234B1800234B9847031E3BD0FB1D58
S11323E01B78682B1FD0742B02D0652B11D024E0EE
S11323F03B6818001C4B98470300DBB20133DAB288
S11324001A4B1A701A4B1B4A1A601A4B00221A7084
S113241017E0164B06221A70154B174A1A60164B12
S113242000221A700DE0114B60221A70104B134AEF
S11324301A60124B00221A7003E00C4B00221A702F
S1132440C0460F4B3A681A60FB1D1B7818000D4BF1
S11324509847012300E000231800BD4602B080BD68
S113246089240000D52A0000F15B0000F404002058
S1132470F0040020600400205D0400205E040020BD
S1132480200500200129000080B582B000AF104B68
S11324901B785A1ED1B20E4A1170002B0ED00D4B70
S11324A01B68591C0B4A1160FA1D1B781370FB1D25
S11324B01B781800084B9847002304E0074B1B685F
S11324C001221A7001231800BD4602B080BDC04627
S11324D0F40400202005002001290000F00400205D
S11324E080B500AF144B01221A70144B98470300B7
S11324F04D2B0CD002DC432B05D014E0532B0ED013
S1132500542B08D00FE00E4B43221A700FE00C4BF3
S11325104D221A700BE00A4B54221A7007E0084B44
S113252053221A7003E0064B57221A70C046012347
S11325301800BD4680BDC0465C040020D1280000C0
S11325400700002080B582B000AF0200FB1D1A70A6
S1132550064BFA1D127811001F220A4001219140F6
S11325600A001A60C046BD4602B080BD00E100E02A
S1132570B0B582B000AF02003960FB1D1A70FB1DBC
S11325801B787F2B32D92F4CFB1D1B781A000F238D
S11325901340083B99082B4AFB1D1B7818000F2396
S11325A00340083B9B0806339B00D31804331B6885
S11325B0FA1D1278100003220240D200FF2090403E
S11325C00200D2431A403B689B01FF201840FB1DC8
S11325D01B781D0003232B40DB00984003001A43A3
S11325E08B1D9B00E31804331A6027E0164CFB1D77
S11325F01B785BB29B081449FA1D127852B29208F8
S1132600C03292005258F91D097808000321014094
S1132610C900FF2088400100C94311403A68920173
S1132620FF201040FA1D1278150003222A40D20020
S1132630904002000A43C0339B001A51C046BD4675
S113264002B0B0BD00ED00E000E100E090B585B05F
S113265000AF78607349BB228B5C0F208343181C46
S1132660032303438B546F49D6228B5C012003431D
S11326708B546C49BB228B5C0F200340181C302305
S113268003438B546749D7228B5C012003438B544B
S1132690654B654A126A80210A431A62634B644A95
S11326A05A80C046614B5B78DBB25BB2002BF9DB2E
S11326B0604A136801210B431360C0465D4B1B68DD
S11326C0DB07DB0FDBB2002BF8D15A4BDB69DB07EE
S11326D0DB0FDBB2002BF1D1564A13681C218B436C
S11326E004210B431360534A136853490B4013608E
S11326F0504A1368C02189030B4313604D4A136881
S11327004E490B40802149020B431360494A136828
S11327104B490B40802189010B431360454A1368E0
S11327208021C9050B431360424A136845490B4095
S11327301360404A536807218B4353603D4A5368F2
S113274040218B4353603B4A5368802189020B43E9
S11327505360384A5368802149020B4353607B68B5
S11327601A01394B1000984702000B00374C002027
S11327703749A04703000C0019002200354B08001C
S1132780110098470300FB602A4AFB68DBB2191C5E
S113279007230B40D9B293894803DB04DB0C191CD3
S11327A0031C0B439381234AFB68DB089BB2DB04C5
S11327B0DB0C99B29389C904C80C5B0B5B03191C2D
S11327C0031C0B4393811B4A937D02210B43937596
S11327D0184A937D04210B4393750E201E4B984792
S11327E003210E201D4B9847124A136802210B4304
S11327F01360C0460F4BDB699B07DB0FDBB2002B7A
S1132800F8D1174B174A1A60154B174A5A60174BE1
S1132810134A03CA03C3164B01221A70C046BD46AD
S113282005B090BD0044004100040040000C00408D
S113283019400000001C0042FFFFFFEFFFFFFCFFF8
S1132840FF1FFFFFFFFFFFF0BD560000C14900005E
S113285060E3B641393C00004525000071250000C5
S11328606C040020AD2B0000A12B000064040020A8
S11328702405002080B500AF074B1B78002B05D042
S1132880054B00221A70044B1B7802E0034B984757
S113289003001800BD4680BD24050020DD2900008A
S11328A080B500AF034B1B7E9B07DB0FDBB2180028
S11328B0BD4680BD001C004280B500AF034B1B7EAB
S11328C05B07DB0FDBB21800BD4680BD001C004275
S11328D080B582B000AF084B01221A70074B1B8DE4
S11328E0DB05DB0D9AB2FB1D1A70FB1D1B7818006B
S11328F0BD4602B080BDC04624050020001C004235
S113290080B582B000AF0200FB1D1A700E4B01228D
S11329101A70C0460D4B1B7EDB07DB0FDBB2002BAE
S1132920F8D00A4AFB1D1B78DB05DB0D99B2138D29
S1132930C905C80D5B0A5B02191C031C0B431385F4
S1132940C046BD4602B080BD24050020001C0042E4
S113295080B582B000AF3B00186059603B001B6833
S1132960002B17D03B005B68002B13D0174B984704
S1132970031E25D1164B9847031E21D13B001B682B
S11329801800144B98473B005B681800124B98479B
S1132990012317E03B001B68002B06D03B001B689B
S11329A018000C4B984703000CE03B005B68002BBD
S11329B007D03B005B681800074B9847030001E011
S11329C0C04600231800BD4602B080BD412B000064
S11329D0652B0000412A0000D52A000080B500AF15
S11329E0094B1A68094B1B689A4205D1064B5A6871
S11329F0064B5B689A4201D0012300E00023DBB25E
S1132A001800BD4680BDC046640400206C0400204C
S1132A1080B582B000AF3B00186059603B001B6872
S1132A201800054B98473B005B681800034B984718
S1132A30C046BD4602B080BD792A00000D2B0000BF
S1132A4080B582B000AF7860084B9847031E07D169
S1132A50074B01221A70074B7A681A60012300E0C1
S1132A6000231800BD4602B080BDC046412B0000C3
S1132A70240500206404002080B582B000AF786093
S1132A80074B1A687B689A4206D1064B01221A70DA
S1132A90054B1A68024B1A60C046BD4602B080BDA1
S1132AA064040020240500206C04002080B582B05A
S1132AB000AF78607B681800044B9847044B7A6831
S1132AC01A60C046BD4602B080BDC046412A00001F
S1132AD06C04002080B582B000AF7860084B984742
S1132AE0031E07D1074B01221A70074B7A685A60FC
S1132AF0012300E000231800BD4602B080BDC0469B
S1132B00652B0000240500206404002080B582B0F9
S1132B1000AF7860074B5A687B689A4206D1064B2F
S1132B2001221A70054B5A68024B5A60C046BD46D2
S1132B3002B080BD64040020240500206C04002041
S1132B4080B500AF054B1A68054B1B68D31A5A1E93
S1132B509341DBB21800BD4680BDC046640400202A
S1132B606C04002080B500AF054B5A68054B5B68C8
S1132B70D31A5A1E9341DBB21800BD4680BDC0462D
S1132B80640400206C04002080B500AF034A137E67
S1132B9002210B431376C046BD4680BD001C004293
S1132BA080B500AF00231800BD4680BD80B500AFDE
S1132BB0024B984700231800BD4680BDD128000071
S1132BC080B500AF114B01221A70114B9847031EB8
S1132BD00BD0104B5B689847031E03D00E4B5A680A
S1132BE00C4B5A600D4B98470CE00D4B9847031E55
S1132BF008D0084B1B689847031E03D0064B1A687D
S1132C00044B1A60C046BD4680BDC0462405002062
S1132C10A1280000640400206C040020892B00001B
S1132C20B928000080B582B000AF0200FB1D1A7005
S1132C30FB1D1B781800244B98473220234B9847E0
S1132C40C046234B9847031EFBD1C046214B1800B6
S1132C50214B9847031EF9D0204B00221A70204BB9
S1132C60FE221A701F4B79221A70FB1D1B78180064
S1132C701D4B98470A20154B9847C046144B98475C
S1132C80031EFBD1C046134B1800134B9847031E79
S1132C90F9D0124B00221A70114B00221A70114BFA
S1132CA020221A70FB1D1B7818000F4B9847C04652
S1132CB0074B9847031EFBD10A20044B9847C04694
S1132CC0BD4602B080BDC046ED2C00006135000059
S1132CD0B515000075320000D91400003D05002030
S1132CE03C05002031050020ED13000080B582B0C2
S1132CF000AF0200FB1D1A70C046114B9847031E1B
S1132D00FBD1C0460F4B18000F4B9847031EF9D058
S1132D100E4B00221A700E4B00221A700D4B10221B
S1132D201A70FB1D1B7818000B4B9847C046044BC8
S1132D309847031EFBD1C046BD4602B080BDC046C5
S1132D40B515000075320000D91400003D050020BF
S1132D503C05002031050020ED13000080B582B051
S1132D6000AF02003960FB1D1A700D4B18000D4BAB
S1132D709847031E0FD00C4B00221A700B4B0622EF
S1132D801A700B4B3A681A60FB1D1B781800094B2C
S1132D909847012300E000231800BD4602B080BD1F
S1132DA0E5320000D91400003D0500203C05002058
S1132DB034050020ED13000080B500AF044B1B78F0
S1132DC0DBB2033B5A425341DBB21800BD4680BD1F
S1132DD03D05002080B582B000AF78603960074BB4
S1132DE000221A70064B7A681A60064B3A681A6019
S1132DF001231800BD4602B080BDC0463005002046
S1132E002C0500203805002090B583B000AFB54BE9
S1132E101B780F2B00D95EE19A00B34BD3181B68C3
S1132E209F46B24B1A68AF4B1B78591CC8B2AD49C8
S1132E300870D418AE4B1B681A00AD4B1B680633E0
S1132E4019001000AB4B98470300237043E1A74BD4
S1132E501A68A44B1B78591CC8B2A2490870D4182C
S1132E60A34B1B689A1DA24B1B680C33190010005E
S1132E70A04B9847030023702DE19C4B1A68994B93
S1132E801B78591CC8B297490870D418984B1B6812
S1132E900C331A00964B1B685A3319001000954BDB
S1132EA098470300237016E1904B1A688D4B1B78EA
S1132EB0591CC8B28B490870D4188D4B1B68123347
S1132EC01A008B4B1B68183319001000894B984764
S1132ED003002370FFE0854B1A68824B1B78591C52
S1132EE0C8B280490870D418814B1B6818331A0083
S1132EF07F4B1B681E33190010007E4B984703005C
S1132F002370E8E0794B1A68764B1B78591CC8B2D9
S1132F1074490870D418764B1B681E331A00744B1E
S1132F201B685A3319001000724B98470300237032
S1132F30D1E06E4B1A686B4B1B78591CC8B26949B7
S1132F400870D4186A4B1B6824331A00684B1B683A
S1132F502A3319001000674B984703002370BAE026
S1132F60624B1A685F4B1B78591CC8B25D490870E4
S1132F70D4185F4B1B682A331A005D4B1B6830332F
S1132F80190010005B4B984703002370A3E0574BD4
S1132F901A68544B1B78591CC8B252490870D4188B
S1132FA0534B1B6830331A00514B1B685A331900BA
S1132FB01000504B9847030023708CE04B4B1A6869
S1132FC0484B1B78591CC8B246490870D418484B62
S1132FD01B6836331A00464B1B683C33190010003B
S1132FE0444B98470300237075E0404B1A683D4BEF
S1132FF01B78591CC8B23B490870D4183C4B1B6859
S11330003C331A003A4B1B68423319001000394B09
S11330109847030023705EE0344B1A68314B1B78E9
S1133020591CC8B22F490870D418314B1B6842335D
S11330301A002F4B1B685A33190010002D4B984768
S11330400300237047E0294B1A68264B1B78591C50
S1133050C8B224490870D418254B1B6848331A0099
S1133060234B1B684E3319001000224B9847030072
S1133070237030E01D4B1A681A4B1B78591CC8B2D8
S113308018490870D4181A4B1B684E331A00184B91
S11330901B68543319001000164B98470300237023
S11330A019E0124B1A680F4B1B78591CC8B20D4912
S11330B00870D4180E4B1B6854331A000C4B1B6851
S11330C05A33190010000B4B98470300237002E099
S11330D0FB1D01221A70FB1D1B781800BD4603B0AE
S11330E090BDC04630050020945E000038050020E5
S11330F02C050020F930000090B585B000AF786051
S113310039603A687B6811001800234B9847031C08
S1133110FB607B681800214B9847021C204B111C54
S1133120F8689847031CFB603B6818001B4B9847E2
S1133130021C1B4B111CF8689847031CFB60FB68BE
S1133140181C184B9847031CFB60174B0021F868A8
S11331509847031E04D0FB68802212065340FB608C
S1133160124B1349F8689847031C1A1C114B101C86
S11331709847114C114A124BA04703000C00190048
S11331802200104B0800110098470300DBB218001E
S1133190BD4605B090BDC046C931000045320000AF
S11331A0993F0000C9350000E93B00007943000065
S11331B000007F432D570000C1490000182D4454DE
S11331C0FB210940393C000080B584B000AF786031
S11331D039600023FB600B23FB1800221A7023E0E4
S11331E00B23FB181B785B0001337A68D35C5BB25A
S11331F019000B23FB181B785B0001333A68D35C7E
S11332005BB24B431A000D4B10009847021C0C4B49
S1133210111CF8689847031CFB600B23FB181A78F1
S11332200B23FB1801321A700B23FB181B78022B9B
S1133230D6D9FB68181CBD4604B080BD21490000E6
S1133240753C000080B582B000AF78607A687B6816
S113325011001800054B9847031C181C044B984791
S1133260031C181CBD4602B080BDC046C931000015
S11332707136000080B582B000AFFB1D00221A70C9
S1133280134B1B78DBB2012B0DD0022B14D0002B77
S113329018D10F4B01221A700E4B1B78DBB21800A9
S11332A00D4B98470EE00A4B02221A700B4B1B7809
S11332B01800094B984705E0094B9847FB1D01226C
S11332C01A70C046FB1D1B781800BD4602B080BDB5
S11332D03D0500203C050020A51400003105002018
S11332E09515000080B582B000AFFB1D00221A7056
S11332F0394B1B78DBB2012B10D0022B5CD0002B96
S113330063D1354B01221A70344B00221A70344BAE
S11333101B78DBB21800334B984756E0304B1B78D0
S1133320DBB25A1CD1B22E4A11701A000323134087
S1133330012B2DD002DC002B0DD046E0022B02D055
S1133340032B04D041E00020264B984733E00020B3
S1133350244B98472FE0244B1B68204A12789B1873
S11333601B783B603B689A00204B0521100098476E
S113337003003B603B68CD331B0ADAB21C4B1A7066
S11333803B68DBB2333BDBB21800164B984712E0C4
S1133390174B1B781800134B9847104B1B780133BD
S11333A0DAB20E4B1A700D4B1B780E2B02D90A4B56
S11333B002221A70C04608E0074B03221A700D4B14
S11333C09847FB1D01221A70C046FB1D1B7818008C
S11333D0BD4602B080BDC0463D0500202805002042
S11333E03C050020A514000034050020AD3A00007F
S11333F03105002095150000B0B582B000AF020081
S11334003960FB1D1A70FB1D1B787F2B32D92F4CA2
S1133410FB1D1B781A000F231340083B99082B4A05
S1133420FB1D1B7818000F230340083B9B08063341
S11334309B00D31804331B68FA1D12781000032272
S11334400240D200FF2090400200D2431A403B6861
S11334509B01FF201840FB1D1B781D0003232B40FC
S1133460DB00984003001A438B1D9B00E3180433D0
S11334701A6027E0164CFB1D1B785BB29B081449AD
S1133480FA1D127852B29208C03292005258F91DB5
S11334900978080003210140C900FF208840010089
S11334A0C94311403A689201FF201040FA1D127876
S11334B0150003222A40D200904002000A43C03380
S11334C09B001A51C046BD4602B0B0BD00ED00E0FD
S11334D000E100E080B582B000AF78607B68013B1A
S11334E00C4A934201D9012310E00B4B7A68013A4C
S11334F05A6001235B4203211800084B9847064B8E
S113350000229A60044B07221A6000231800BD466B
S113351002B080BDFFFFFF0010E000E0F9330000BF
S1133520B0B500AF054B1800054B9847054A00237A
S1133530002413605460C046BD46B0BD80BB00008B
S1133540D53400004005002090B500AF034B5C6803
S11335501B6818002100BD4690BDC04640050020F0
S1133560F0B585B000AF78600D4B5C681B68BB603C
S1133570FC60C0460A4B1D685E68BB68FC68ED1AB7
S1133580A6412B0034007868010000200200A2420A
S1133590F0D801D19942EDD8C046BD4605B0F0BD82
S11335A04005002090B500AF064B5C681B68012104
S11335B000225B185441034A13605460C046BD4660
S11335C090BDC04640050020F0B58DB0041C00F04D
S11335D0A1F80023234E051CF356013331D0211CDE
S11335E0201C01F085F9071E2BD1201C00F05AFA8B
S11335F0FE21890500F00CFB002822D00123029350
S1133600194B201C03930A9702F090F80690079137
S113361004900591154800F03FFA0023F3560890F2
S11336200991022B10D002A800F034FA00280BD024
S11336300A9B0193002B0FD10898099902F0C8F84E
S1133640051C281C0DB0F0BD02F0A8FA212303606C
S11336500A9B0193002BEFD002F0A0FA0A9B01937E
S11336600360E9E708000020D45E0000DC5E00008F
S1133670F0B500258DB0041C00F0B0F9234B061CF6
S11336805D576B1C0BD0211C201C01F031F9071E67
S113369005D10021201C00F0A7FA002802D1301C1B
S11336A00DB0F0BD01230293194B201C03930A971C
S11336B002F03CF800220690079104900591002343
S11336C0002D15D01000190001F07AF90890099125
S11336D0022D0FD102F062FA212303600A9B0193A9
S11336E0002B0DD10898099902F072F8061CD6E750
S11336F00892099302A800F0CDF90028EED1E9E779
S113370002F04CFA0A9B01930360EBE708000020E7
S1133710E05E0000FE22F8B54300041C5B0892053D
S1133720934211D009DC9D4A934212DC8C2292050B
S1133730934200DD80E09A4805E0011C00F03CFF64
S1133740011C00F029FCF8BD0020002CFBDC95488E
S1133750F9E7002800DAC3E0011CFE20800500F030
S11337602BFFFC21890500F007FE041C00F036F94C
S11337708D49061C050B201C00F0FEFD8B4900F052
S113378079FA211C00F0F8FD894900F015FF211C8D
S113379000F0F2FD874900F06DFA211C00F0ECFD09
S11337A0854900F009FF211C00F0E6FD834900F083
S11337B061FA211C00F0E0FD8149071C201C00F087
S11337C0DBFD804900F0F8FE211C00F0D5FD7E49A8
S11337D000F050FA211C00F0CFFD7C4900F0ECFE13
S11337E0211C00F0C9FDFE21890500F043FA011CEB
S11337F0381C00F0D1FB311C00F0BEFD2D03071C6A
S1133800291C281C00F0B8FD011C201C00F0D4FE6B
S1133810311C041C281C00F02DFA011C201C00F093
S1133820BBFB011C381C00F025FA291C00F022FA0D
S1133830011C00F01FFA86E7011C00F09DFD5A49A7
S1133840051C00F099FD594900F014FA291C00F0F8
S113385093FD574900F0B0FE291C00F08DFD554939
S113386000F008FA291C00F087FD534900F0A4FE7B
S1133870291C00F081FD514900F0FCF9291C00F0DD
S11338807BFD4F49061C281C00F076FD4D4900F0D5
S113389093FE291C00F070FD4B4900F0EBF9291C44
S11338A000F06AFD494900F087FE291C00F064FD20
S11338B0FE21890500F0DEF9011C301C00F06CFBD0
S11338C0211C00F059FD011C414800F075FE011C4B
S11338D0201C00F071FE011C3E4800F06DFE32E732
S11338E0FE21890500F0C6F9FC21890500F044FD9C
S11338F02D49041C00F040FD2C4900F0BBF9211CAB
S113390000F03AFD2A4900F057FE211C00F034FD76
S1133910284900F0AFF9211C00F02EFD264900F0E3
S11339204BFE211C00F028FD244900F0A3F9211CC2
S113393000F022FD061C201C00F050F82049051C54
S1133940201C00F019FD1F4900F036FE211C00F078
S113395013FD1D4900F08EF9211C00F00DFD1B49DB
S113396000F02AFE211C00F007FDFE21890500F06D
S113397081F9011C301C00F00FFB291C00F0FCFC39
S1133980134900F019FE291C00F074F9011C00F021
S113399071F9011C104800F00FFED4E6FFFFFF3E52
S11339A0DB0FC93FDB0F494008EF1138047F4F3A62
S11339B04611243DA80A4E3E90B0A63EABAA2A3E2C
S11339C02EC69D3D6133303F2D57014039D11940FA
S11339D06821A233DA0FC93FDA0F49402B4942006C
S11339E070B50300041C52088A423AD8002A37D022
S11339F000283FDB2649C6158A420BD880200004E4
S1133A0020423ED1002200E00A005B00511C034228
S1133A10FAD0B61A5B025A0A80237F3E1B04134372
S1133A20F20725D4802270101921002600255B009E
S1133A305204AC189C4202DCA5181B1BB6180139B1
S1133A405B0052080029F4D1002B02D00123013677
S1133A509E43FC239B059C4676106644C005801952
S1133A6070BD011C00F088FC211C00F003F9F7E78D
S1133A705B00D7E7011C00F09FFD011C00F08CFAED
S1133A80EEE701225242B61AC4E7C046FFFF7F7F29
S1133A90FFFF7F0000207047002001497047C046A7
S1133AA00000F87F400040087047C04600224308E9
S1133AB08B4274D303098B425FD3030A8B4244D3F2
S1133AC0030B8B4228D3030C8B420DD3FF22090234
S1133AD012BA030C8B4202D31212090265D0030BF3
S1133AE08B4219D300E0090AC30B8B4201D3CB03E9
S1133AF0C01A5241830B8B4201D38B03C01A52412B
S1133B00430B8B4201D34B03C01A5241030B8B422C
S1133B1001D30B03C01A5241C30A8B4201D3CB0217
S1133B20C01A5241830A8B4201D38B02C01A5241FC
S1133B30430A8B4201D34B02C01A5241030A8B42FF
S1133B4001D30B02C01A5241CDD2C3098B4201D317
S1133B50CB01C01A524183098B4201D38B01C01A95
S1133B60524143098B4201D34B01C01A524103090C
S1133B708B4201D30B01C01A5241C3088B4201D3BB
S1133B80CB00C01A524183088B4201D38B00C01A68
S1133B90524143088B4201D34B00C01A5241411A8F
S1133BA000D20146524110467047FFE701B500209C
S1133BB000F006F802BDC0460029F7D076E770474A
S1133BC07047C0468446081C6146FFE71FB500F0F5
S1133BD091FB002801D40021C8421FBD10B500F09C
S1133BE023FB4042013010BD10B500F083FB0028D8
S1133BF001DB002010BD012010BDC04610B500F04F
S1133C0079FB002801DD002010BD012010BDC04655
S1133C1010B500F02FFB002801DC002010BD0120AE
S1133C2010BDC04610B500F025FB002801DA0020C5
S1133C3010BD012010BDC04670B500220C4B04001D
S1133C400D0001F083FE002804D12000290001F0BA
S1133C5001FD70BD064B00222000290001F0E4F9AB
S1133C6001F0F8FC80231B069C466044F1E7C04643
S1133C700000E041F0B5C6464E024702760A7B0AD0
S1133C804400C50FF7004800984600B5240E2A00EA
S1133C90DB00000EC90FBC468D4267D0221A002AF1
S1133CA000DCA5E000283AD1002F00D193E0511E9A
S1133CB0002900D0BCE00124DB1B5A0146D59B013E
S1133CC09E09300001F04CFE05388640844200DD38
S1133CD09DE0041B320020200134E240041BA64076
S1133CE033005E1EB341002413435A0704D00F224D
S1133CF01A40042A00D004335A0129D50134FF2C78
S1133D0000D181E02A009B015B0AE4B25B02E40576
S1133D10580AD2072043104304BC9046F0BDFF2C40
S1133D20E3D080213800C904084384461B2A00DDFF
S1133D3082E020206146D140821A60469040020011
S1133D40501E82410A439B1A5A01B8D45A07CED155
S1133D50DE082A00FF2C3AD1002E00D1AEE08023E9
S1133D60DB0333435B025B0AFF24CFE7211A0029FC
S1133D7052DD002831D0FF2CB7D080203E00C00493
S1133D800643B4461B2900DDAAE020266046C8404D
S1133D90711A66468E4031004E1EB14101435B18D4
S1133DA05901D3D50134FF2C00D187E00122784991
S1133DB01A405B080B40134397E7002C00D0A7E0A0
S1133DC0002B00D0B6E03B1E62D100260022730215
S1133DD05B0AE4B29AE7140087E7002F4DD0481E2F
S1133DE0002857D1634401245A01AFD50224DDE7EA
S1133DF0002A24D1621CD2B2012ADEDDDE1B72014C
S1133E0035D5FE1A0D005CE72A0000237EE7330057
S1133E10604A241A134068E7002963D1611CC8B2C0
S1133E2001284EDDFF2949D063445B080C005CE7A0
S1133E30FF2A41D00A0079E701229B1A84E7002C6B
S1133E401DD0FF2822D08024E404524223431B2A9D
S1133E5000DD8AE01C002025D440AA1A93405A1E93
S1133E609341234362460400D31A0D0025E7002E34
S1133E7000D026E700220024A9E70C0035E7002B38
S1133E804DD0D243002AEDD0FF28E0D16346FF2471
S1133E900D002AE7FF290FD0010073E7002B61D042
S1133EA0FF24002F00D120E780224146D203114293
S1133EB002D0164200D13B00FF2416E7FF24002362
S1133EC024E7002CEAD1002B58D0002F00D10CE7B6
S1133ED063445A0100D439E72E4A0C00134004E726
S1133EE001215CE7002C1ED1002B40D0C9430029DE
S1133EF00BD0FF2836D01B2947DC1C002026CC40E1
S1133F00711A8B40591E8B4123436344040047E7D5
S1133F10002B18D13B1E2DD00D00FF24E5E63B00FD
S1133F2004000D00E1E6FF281CD08024E40449428B
S1133F302343E0E7002F00D1D7E6DE1B72011FD533
S1133F40FB1A0D00D1E6FF24002F00D1CDE680221C
S1133F504046D2031042AFD01642ADD13B000D0013
S1133F60FF24C2E66346FF24BFE601237AE73B0051
S1133F700400BAE680260022F603F0E63B00B4E62D
S1133F80331E00D0E2E6002221E70123BDE7C0464C
S1133F90FFFFFF7DFFFFFFFBF0B557464E46DE46B1
S1133FA04546E0B544024300C60F83B00F1C640AC3
S1133FB01B0EB24653D0FF2B27D08022E400D2043C
S1133FC014437F22524290469844002399469B46CC
S1133FD07D027800FB0F6D0A000E009324D0FF28A9
S1133FE046D080230021ED00DB041D437F38474683
S1133FF0381A4F460F43BF00B9463300009A874F23
S113400053404A46BA5801939746002C4ED1082390
S11340109946F7339846FD3B9B467D027800FB0F9B
S11340206D0A000E0093DAD1002D26D10020012163
S11340303300009A7A4F53404246101A4A460A43C4
S11340409200BA581D009746009B2C009A468B4656
S11340505B46022B31D15346FF21002438E0002C6B
S113406017D1042399460023984601339B46AFE7B2
S1134070FF20002D0BD10221DAE7280001F070FCAB
S1134080431F9D4076235B42181A0021AFE70321AA
S1134090ADE7200001F064FC431F9C4076235B42A3
S11340A01B1A9846002399469B4691E70C23994690
S11340B0F3339846FC3B9B468AE7032B00D1A5E0EB
S11340C05546012B00D081E00123002100242B4020
S11340D06402C905600ADB070843184303B03CBC0B
S11340E090469946A246AB46F0BD80240023E403E3
S11340F0FF21EDE7FF210024EAE70123591A1B29D8
S113410066DD019A134000210024E1E78023DB03EC
S11341101C4238D01D4251D01C436402640A33004F
S1134120FF21D5E763016C01A3423BD21B2600218A
S1134130013801251F0049005B00002F01DB9C4270
S113414001D81B1B2943013E002EF3D11C00631E22
S11341509C410C4301007F310029CEDD630704D06C
S11341600F232340042B00D00434230103D5010082
S11341702C4B80311C40FE290DDD0123019AFF21C7
S113418013400024A4E78023DB031C436402640A75
S11341903300FF219CE70123019AA401640AC9B2F8
S11341A0134095E71B1B1A260121C2E7009B8B468F
S11341B09A4600244CE76302E5D500258024E403F5
S11341C02C436402640A009BFF2181E70195C1E747
S11341D023002020CB40411A8C40611E8C411C439B
S11341E0630704D00F232340042B00D0043463015D
S11341F005D50123019A01211340002468E7012316
S1134200019AA401640A1340002161E78023DB03BF
S11342101C436402640A5346FF2159E7E85E000028
S1134220285F0000FFFFFFF770B5420045024E0211
S11342304C00C30F6D0A120E760A240EC90F01201A
S1134240FF2A06D0FF2C03D0A24201D1B54206D0EA
S113425070BD002DFCD1FF2CFAD1002EF8D18B4279
S113426006D00120002AF3D12800451EA841EFE71B
S11342700020EDE7F0B5420045024C02C30F4800B0
S11342806D0A120E640A000EC90FFF2A1ED0FF2801
S113429021D0002A0AD16E426E41F6B200280FD115
S11342A0002C0DD10020002D09D005E0002801D1FB
S11342B0002C01D08B4211D0012158420843F0BD9B
S11342C0002EF7D0012001390843F8E7002DDED095
S11342D002204042F3E7002CDBD0F9E78242EBDC1A
S11342E004DBA542E8D80020A542E8D20121581EEB
S11342F00843E4E7F0B542004D024C004602760A5A
S1134300120EC30F6D0A240EC90FFF2A16D0FF2CFC
S113431018D0002A0AD170427041C0B2002C15D0C6
S1134320002805D0012001390843F0BD002C13D02A
S1134330994214D001205B421843F6E70220002E74
S1134340F3D1E4E70220002DEFD1E2E7002DE7D11D
S11343500020002EE9D0EDE7002DE9D1EAE7A242E2
S113436006DCDFDBAE4203D80020AE42DAD3DCE762
S1134370012049420843D8E7F8B557464E4645461A
S1134380DE46E0B54702460088467F0A360EC40F73
S1134390002E47D0FF2E24D0FB008027FF041F43AC
S11343A0002399469A467F3E43465D025800DB0F40
S11343B06D0A000E984643D0FF283BD0EB008025C1
S11343C00022ED041D437F383618731C41469B467A
S11343D04B46614013430F2B64D875489B00C35868
S11343E09F46002F42D108239946063BFF269A4652
S11343F0DAE74146022A28D0032A00D1CEE0012A76
S113440000D0ACE0114000200022CCB24002D20522
S1134410400AE407104320433CBC90469946A24618
S1134420AB46F8BD002F15D104239946033B002663
S11344309A46B9E7FF200222002DC5D00322C3E724
S1134440002D19D100200122BEE70124FF220C40D7
S11344500020DBE7380001F083FA7626431F9F40F3
S113446000237642361A99469A469DE70C239946CC
S1134470093BFF269A4697E7280001F071FA431F8B
S11344809D4076235B42181A00229DE78020002479
S1134490C003FF22BAE73D005246ABE73D002100CE
S11344A05246A7E73B0C9C462A04120C2B0C140022
S11344B0604665463F043F0C7C4342435D437B4377
S11344C0270C9B18FF18BA4203D980235B029C4631
S11344D0654424043A04240C121993015C1EA3417C
S11344E03F0C920E7D191A43AD0115432B0104D5DF
S11344F001235E466A081D40154332007F32002ABC
S113450025DD6B0704D00F232B40042B00D004358A
S11345102B0103D53200274B80321D40FE2A94DC48
S11345200124A801400AD2B20C406FE78020C003E6
S1134530074207D0054205D128434002400A4446B9
S1134540FF2263E738434002400AFF225EE701246A
S1134550A31A1B2B05DD0C400022002056E75E4603
S1134560CBE72A002020DA40C31A9D402B005D1EB1
S1134570AB4113435A0704D00F221A40042A00D037
S113458004335A0104D5012401220C4000203DE7E4
S113459001249B01580A0C40002237E780200124A3
S11345A0C00328434002400A0C40FF222EE7C046C5
S11345B0685F0000FFFFFFF7F0B54F46D64646465A
S11345C04400C0B5C20F47024802400A844666460A
S11345D07B0A4800C90F9A46240E1500DB00000E22
S11345E08946F600FF2800D18FE001214F464F4055
S11345F03900914266D0221A002A00DC9DE000288E
S11346003DD1002E00D18BE0511E002900D0B5E031
S113461001249B1B5A0144D59B019F09380001F0DA
S11346209FF905388740844200DD96E0041B3A0078
S113463020200134E240041BA7403B005F1EBB4125
S1134640002413435A0704D00F221A40042A00D02E
S113465004335A0127D50134FF2C00D179E001221B
S11346609B015B0AE4B22A405B02E405580AD207C4
S1134670204310431CBC90469946A246F0BDFF2C33
S1134680E0D08021C9040E431B2A7BDC31002020AA
S1134690D140821A9640721E96410E439B1B5A01CA
S11346A0BAD45A07D0D10122DF082A40FF2C33D1D3
S11346B0002F00D1A8E08023DB033B435B025B0AAD
S11346C0FF24D1E7211A00294CDD00282AD0FF2C31
S11346D0B8D08020C00406431B2900DDAFE03000C1
S11346E02027C840791A8E40711E8E4106439B19BB
S11346F05901D6D50134FF2C00D185E001227A4935
S11347001A405B080B4013439CE7002E00D070E76F
S11347106BE73B1EC5D100227B025B0AE4B2A3E730
S113472014008FE7002E4DD0481E002857D19B1946
S113473001245A01B5D50224E0E7002A25D1621CE0
S1134740D2B2012A72DD9F1B7A0135D5F71A0D000A
S113475064E7012200232A4086E73B00634A241AC7
S113476013406FE700296CD1611CC8B201284EDDEB
S1134770FF2949D09B195B080C0063E7FF2A41D04D
S11347800A0081E701269B1B89E7002C1CD0FF2827
S113479021D08024E404524223431B2A00DD96E006
S11347A01C002025D440AA1A93405A1E9341234347
S11347B0F31A04000D002DE7002F00D02EE700228D
S11347C00024A9E70C003DE7002B58D0D243002A6F
S11347D0EED0FF28E1D13300FF240D0032E7FF299A
S11347E010D0010078E7002B6ED0FF24002E00D1FA
S11347F028E780225146D203114203D06146114278
S113480000D13300FF241DE7FF2400232CE7002CF4
S1134810E9D1002B63D0002E00D113E79B195A0174
S113482000D43EE7314A0C0013400BE7002C1ED1A4
S1134830002B2FD1002E4FD033000D0002E70126AC
S113484055E7002C1FD1002B43D0C94300290BD0BE
S1134850FF2839D01B2944DC1C002027CC40791ABE
S11348608B40591E8B4123439B19040040E7002BC6
S11348701AD1002E24D180270022FF031BE7330026
S113488004000D00DEE6FF281ED08024E404494223
S11348902343DFE7002E00D1D4E69F1B7A0100D426
S11348A037E7F31A0D00CDE6FF24002E00D1C9E648
S11348B080225046D2031042A4D060461042A1D1B7
S11348C033000D00FF24BDE63300FF24BAE60123C4
S11348D06EE733000400B5E6002700221CE733002E
S11348E0B0E60123C0E7C046FFFFFF7DFFFFFFFBEB
S11348F042024B0240004900520A000E5B0A090EB4
S1134900FF2803D00020FF2906D07047FE38002A74
S1134910FBD10020FF29F8D11800431E9841F4E789
S113492070B5002830D0C317C4185C40C50F2000F0
S113493001F016F89E231B1A962B0DDC9622D21A30
S113494094402A006402640ADBB26402DB05600A54
S1134950D2071843104370BD992B19DC9922D21A3F
S1134960002A29DD94402200144C1440510704D03D
S11349700F210A40042A00D00434620113D4A40194
S1134980640ADBB22A00E0E7002200230024DCE70B
S113499005222100121AD140B922D21A9440621E73
S11349A094410C43DAE7054B2A001C409F23A401E1
S11349B01B1A640ADBB2C8E72200D5E7FFFFFFFB3E
S11349C0F0B557464546DE464E46E0B54C000E036C
S11349D087B0834692461D008046360B640DCF0F88
S11349E0002C4FD06F4B9C4235D08023420F1B04C8
S11349F0F600134333439946C30098466A4B002696
S1134A009C460023644403932B031B0B9B466B00BF
S1134A10ED0F50465B0D01955ED0624A934253D030
S1134A205A46D1008022400F120402430A4393469F
S1134A305246D1005C4A94460022634438006840E0
S1134A4084460290E41A16430F2E00D9B4E0574B63
S1134A50B6009B599F460300334399466CD100230B
S1134A609846023308260393CEE7CB464146039A81
S1134A700197022A65D1019B4A4C9C4600230022DF
S1134A8098466BE00300334399464ED0002E00D184
S1134A90BCE1300000F064FF03000B3B1C2B00DD85
S1134AA0ACE11D22D31A5A460100DA4008398E407F
S1134AB01300334399465B468B40984600233C4C95
S1134AC00026241A03939FE751465A46114329D1DD
S1134AD0002293460232B1E7594601431ED05B4699
S1134AE0002B00D19EE1584600F03AFF03000B3B37
S1134AF01C2B00DD8FE102005946083A91408B4699
S1134B001D21CB1A5146D9400B0059460B4351463F
S1134B109B469140264B00221B1A8FE7002301225B
S1134B209B468BE75146032288E7002398460133CE
S1134B3004260024039367E70323B14603930C265A
S1134B4062E7032A00D15CE2019B012A00D0E4E180
S1134B5013409C460023002400229846002112039F
S1134B60130B0A0D12051A432305124C404622402A
S1134B70134362465B00D2075B081343190007B076
S1134B803CBC90469946A246AB46F0BD0023802229
S1134B909C4612039846034CE0E70023014C002294
S1134BA09846DBE7FF07000001FCFFFFA85F000059
S1134BB00DFCFFFFFFFF0F80D94500D939E100D17B
S1134BC034E1002346464D469A46013C5B460A0EB4
S1134BD01B021A430B02170C039313041B0C39001A
S1134BE0280090460193FEF761FF0200019B834673
S1134BF05A43280039009146FEF7DEFF350C0904BC
S1134C000D43A9450DD95B464544013BA84500D950
S1134C103AE1A94500D837E102235B429C4645446A
S1134C20E3444B46EB1A390018000493FEF73EFFA9
S1134C30019B05004343390004989946FEF7BCFFE5
S1134C40330409041B0C0B43994509D943446A1ED8
S1134C50984500D91AE1994500D817E1023D43442B
S1134C604A469B1A5A4612042A4303999346100C47
S1134C700A0C914609045A46090C4E460D001204CA
S1134C80120C4543059151437243704352190E0C63
S1134C90B218954203D980256D02AC466044150CC8
S1134CA009041204090C28185218834200D2CEE0D9
S1134CB000D1C8E01D1A53469E1AB2459241524291
S1134CC0AB1A9A46984500D117E139001800FEF74F
S1134CD0EDFE019B05004343390050460493FEF763
S1134CE06BFF04980B04310C1943884209D94144E1
S1134CF06B1E884500D907E1884200D804E1023DD3
S1134D004144049BCB1A180039000493FEF7CEFEED
S1134D10019B82464343390004980193FEF74CFFFC
S1134D2001980B043104090C194388420DD95346E8
S1134D304144013B884500D9E8E0884200D8E5E0D9
S1134D4002235B429C464144E244019B2D04CE1A5B
S1134D5051462943059D4F462A000B04080C1B0CA1
S1134D605A4345437B4378435B19170CFB189D4218
S1134D7003D980256D02AC4660441D0C12041B044B
S1134D80120C28189B18864200D293E000D18EE0C2
S1134D9001231943A04BE318002B00DC99E04A07D8
S1134DA000D09EE05A46D20106D55A469B4B1A4083
S1134DB080239346DB00E318994A934268DD01237C
S1134DC0029A984C1A400023944698460022C5E65D
S1134DD080224B46120313420AD05B46134206D18B
S1134DE01A431203120BAC4688468E4CB6E64B4669
S1134DF01A431203120BBC468A4CAFE603005A4610
S1134E00283B9A4000239146984657E6584600F0BE
S1134E10A7FD203040E603005246283B9A4000217B
S1134E20934677E600F09CFD20305FE6884500D28B
S1134E30C7E64B46DE075D0843465B081E43434610
S1134E40DB079A46C2E60025924500D333E7039E6A
S1134E505946B446E244B245AD416D424544EB186F
S1134E600139984507D2984200D97FE000D1BCE0CF
S1134E701D1A8B461FE79845FAD1039D5545F2D973
S1134E8043468B461D1A16E79B46CAE61500E7E61D
S1134E905A46C90852070A435B0590465C0D5A46B8
S1134EA00123029952021940120B8C4656E6002B3C
S1134EB000D16FE746444A1EB04529D91100864205
S1134EC000D065E7039A934200D061E762E70121CD
S1134ED049420120C21A382A21DD029B03409C4624
S1134EE038E60F220A40042A00D15BE70A00111DAC
S1134EF0914292415242934454E7474BE318002BAA
S1134F00E5DD01225242F2E71D00FAE69A461CE76B
S1134F10B04239D86ED011003AE702933AE71F2A1B
S1134F203CDC20239B1A0C005846994098404B1EA9
S1134F3099415B46D440D340204308431A004307B9
S1134F4009D00F230340042B05D00100081D88421B
S1134F509B415B42D21813023AD50123029A0124E1
S1134F601A400023944698460022F7E5022149425C
S1134F708C46039DE344AC46E244AA45AD416D42F0
S1134F804544ED182D1A96E68A1E03994D008D426C
S1134F90894149424144761803958FE71F204042D6
S1134FA0C31A5846D8400300202A28D040205D4622
S1134FB0821A954029434A1E91411943072300222E
S1134FC00B4009D00F2300220B400800042BBDD155
S1134FD0010053075202120BC908194301238846E2
S1134FE00299002419408C46B8E55245BED88B4638
S1134FF0002560E6039D9D42C6D3110062E70025AB
S1135000D8E780225B4612031A43019B1203120B5A
S11350109C468846034CA1E5FF030000FFFFFFFE0A
S1135020FE070000FF070000F0B54646D6464F468F
S11350300C03C0B5CD0F4E00610A440F0C43C100F0
S11350405800400D84468A460F001903500F490A40
S11350500143C648760DA846DB0FD200844500D133
S1135060D8E001204340AB4200D1A6E06046351AA7
S1135070002D00DC05E1002810D10B00134300D102
S1135080D7E06B1E002B00D04BE153469F1ABA4564
S11350908041641A4042241A01261EE0B34B9E420A
S11350A048D080231B041943382D00DD19E11F2D3E
S11350B000DD4CE120230F005B1B10009A409F4051
S11350C0E840531E9A41E940074317435346DF1B08
S11350D0611ABA45A44164420C1B230200D4C5E002
S11350E06402650A002D00D1F6E0280000F038FCC7
S11350F00300083B1F2B00DDE9E020223C00D21A0C
S11351009D40D4409F4025439E4200DDDBE09E1B32
S1135110731C1F2B00DD0AE120223800D21A29005B
S113512097402C009140D8407A1E9741DC400026DD
S113513001430F437B0709D00F233B40042B05D0C9
S11351403B1DBB42BF417F42E4191F00230225D50A
S1135150864B01369E4200D1AFE0854B01251C40B1
S113516043466207FF08640276051743240B760D55
S11351701D4000212403230B0C0D7E4A24051C43EF
S11351801440330523435B00ED075B082B433800D1
S113519019001CBC90469946A246F0BD0125434621
S11351A06207FF081743E4081D40704B9E4236D047
S11351B024037605240B760DDBE76346F31A002BF4
S11351C000DC94E06046002835D068488642B1D0BF
S11351D080273F043943382B00DCFDE00A431700E5
S11351E000217A1E9741574457458041091944428A
S11351F00C1923023AD55D4B01369E4200D14BE196
S113520001225B4B1C407B0817401F43E2071743F6
S113521064088FE70800104300D024E721E7230047
S11352203B4300D1B9E18022120314432403240B2D
S11352309FE72E007EE70800104300D1CAE0581E05
S11352408446002800D0E7E0524452458041641867
S11352504042241817000126230207D50226CFE76F
S113526064462C4300D1B3E12C0067467B0700D091
S113527062E76307FF081F4301254346E4081D4016
S113528093E7002D78D1751C6D056D0D012D00DCA3
S1135290F2E05046801A8245BF41651A7F42ED1BF9
S11352A08446280200D48CE05046171ABA42924130
S11352B00C1B5542651B984614E701254346002400
S11352C01D40002755E72A4CF61A2C4032E73D00D2
S11352D028388540002717E7380000F041FB2030CC
S11352E006E70A43170000217A1E9741EEE6002BD9
S11352F000D0E5E0731C9C465B055B0D012B00DCD4
S11353009FE01A4B9C4500D1C5E052445245804170
S1135310641840422418E707520817436408664695
S113532008E71248854200D185E01D00BCE629004B
S11353301F3EF140202B00D17FE04022D31A9D4034
S11353402F437D1EAF4100240F4300268EE72B0020
S11353500F00203BDF40202D71D040235D1BA9406E
S11353600A43511E8A4100211743AFE6FF0700009C
S1135370FFFF7FFFFFFF0F80002E3ED0B34EB445EA
S113538045D0802636046D423443382D00DDA8E034
S11353901F2D00DD1FE1202627005046761BB74055
S11353A0E84007435046B040461EB041EC40384305
S11353B0171ABA4292410C1B5242A41A66469846E6
S11353C08BE6644667462C4300D08BE60025002616
S11353D00027EAE61E00ADE61F2B60DC2027F81A42
S11353E00F00844687401000D8400743604682403F
S11353F0501E8241D9401743F5E626005046064325
S113540005D0ED43002DD3D0904EB445BDD10C0052
S11354101700664698468DE68C4883420BD0634657
S1135420D9E6002D00D096E00800104300D1E2E058
S11354300C0017009846854E7CE6002580E7002185
S11354408EE7230050460343002E00D0A8E0002B33
S113545000D1DEE00B00134300D16BE65244524509
S113546080416418404224181700230200D4FDE64A
S1135470774B66461C405DE6250050460543002EEA
S1135480CFD1002D4FD10C00144300D1A0E00C006B
S1135490170098464EE666460024002785E61F005E
S11354A00800203FF8400700202B00D18EE0402068
S11354B0C31A99400A43511E8A410021174392E6B8
S11354C0002E14D126005046064362D0DB43002B45
S11354D05CD187189742924164185242A4186646D8
S11354E087E650462043441EA041002460E7574EFF
S11354F0B4454ED0802636045B423443382B00DD5D
S11355007FE01F2B00DD8BE0202627005046F61A93
S1135510B740D84007435046B040461EB041074309
S1135520DC40BF18D6E70D00154300D102E6504613
S1135530801A8245BF41651A7F42ED1B84462802CA
S113554000D48DE65046171ABA4292410C1B5242BF
S1135550A41A9846EEE50D00154300D16BE75046BA
S11355606707C00807438020E4080003044207D00B
S1135570CD08054204D12C009846D70849070F43AB
S11355807B0FE4001C43FF00304ED3E52F4EB4459F
S1135590B4D10C0017006646CCE500270024E8E5EA
S11355A0002B39D00B00134300D144E7C008670730
S11355B007438020E40800030442E1D0CB080342FF
S11355C0DED1D70849070F431C00D9E7002171E752
S11355D000250027E9E52E002700203EF740202D76
S11355E02FD04026751BAC4050462043441EA0419A
S11355F000243843DCE6802400252403134E0027CE
S1135600D3E5504620430700781E87410024BF1885
S113561060E70C0017008DE50C0017000B4E89E5C0
S11356201E002700203EF740202B0CD04026F31A02
S11356309C4050462043441EA04107430024BF1809
S113564048E70024D0E70024F3E7C046FF07000042
S1135650FFFF7FFF30B5134D0A034B00120B5B0DA8
S1135660C90F0024AB4210DD0F4CA3420FDC802491
S11356700E4D64032243ED1A1F2D0BDD0C48C31A93
S1135680DA405442002900D11400200030BD094BF7
S1135690CC18FAE7084CE840A44663449A40024315
S11356A0EFE7C046FE0300001D04000033040000C1
S11356B013040000FFFFFF7FEDFBFFFF10B5041E86
S11356C028D000F04DF9154B154A1B1AD21A1F2A7F
S11356D015DD144AD21A9440002224035B05240BDE
S11356E05B0D0021100024030A0D240B1205224334
S11356F00D4C1B05224013435B00590810BD2100CB
S113570091400A000B21081AC4405B052403240BB2
S11357105B0DE6E7002300240022E2E71E040000FC
S11357203304000013040000FFFF0F804100090E42
S11357304B1C70B5DBB24602750AC40F012B14DD95
S1135740E0239B006D07360BCB1800210A0D2800BF
S113575012051C4D32435B052A405B0813435B0072
S1135760E4075B082343190070BD002914D1002D00
S11357701ED0280000F0F4F80A281CDC0B232A00B1
S11357801B1ADA40030015339D400F4B12031B1AFA
S11357905B05160B5B0DD8E7002D06D0320B802677
S11357A036036D071643094BCFE7084B0026CCE7B9
S11357B000230026C9E703002A000B3B9A4000257A
S11357C0E3E7C046FFFF0F8089030000FF070000E6
S11357D0F0B54C00640D0B03621C450F5B0A5205C7
S11357E02B43C90FC500520D012A28DD3A4AA618D9
S11357F0FE2E1BDC002E3EDD80010200501E824185
S11358006D0F2A43DB0013435A0704D00F221A40BA
S1135810042A00D004338022D2041A405AD001361C
S1135820FF2E03D09B015B0AF4B201E0FF240023A6
S11358305802E405400AC90720430843F0BD002C80
S113584007D01D43F2D08020DB0080040343FF26F1
S1135850DAE72B4303D00523DB08FF2C03D05B02DC
S11358605B0AE4B2E4E7002B32D08020C003034398
S11358705B025B0ADCE73200173214DB80221E274E
S113588012041343BF1B1F2F0FDC144A94466444B5
S11358902A00A5402E00A340751EAE41FA403343B2
S11358A013430026B0E70024D5E702225242961B98
S11358B01A00F240202F09D0094884466444A340CA
S11358C02B435D1EAB41002613439DE70023F7E7FE
S11358D00023ADE73400BFE780FCFFFF82FCFFFF3D
S11358E0A2FCFFFF8446101C62468C46191C6346CA
S11358F000E0C0461FB500F0EFF8002801D40021F5
S1135900C8421FBD10B500F049F84042013010BD37
S113591010B500F0E1F8002801DB002010BD0120E3
S113592010BDC04610B500F0D7F8002801DD0020F6
S113593010BD012010BDC04610B500F069F8002864
S113594001DC002010BD012010BDC04610B500F0E0
S11359505FF8002801DA002010BD012010BDC04608
S11359601C2101231B04984201D3000C10391B0A8B
S1135970984201D3000A08391B09984201D300094F
S1135980043902A2105C40187047C04604030202A6
S1135990010101010000000000000000F0B54F46C5
S11359A04646D6465C00C0B51F03DB0F9A46174B2C
S11359B00E034D0084468046360B6D0DC90F91468B
S11359C03F0B640D01209D4208D09C4201D0A542AA
S11359D00BD01CBC90469946A246F0BD63463343A7
S11359E0F7D1AC42F5D13A43F3D10120BE42F0D114
S11359F0C845EED1514507D0002DEAD163461E4378
S1135A003000461EB041E4E70020E2E7FF07000053
S1135A10F0B54546DE4657464E46E0B51F033D0BFE
S1135A202C4F0E034C00AB465D008446360B640DD0
S1135A30C90F90466D0DDB0FBC422AD0254FBD42E5
S1135A402DD0002C0FD13043070081467842784195
S1135A50C0B2002D17D15F463A4314D14B46002003
S1135A60002B0AD006E0002D02D15846024301D093
S1135A70994218D04842012108433CBC90469946BB
S1135A80A246AB46F0BD0028F2D00120013B1843EA
S1135A90F3E737000743D1D002204042EDE75F46E9
S1135AA01743CED0F8E7AC42E4DC03DA481E012108
S1135AB00843E2E75E45DDD806D000205E45DCD22F
S1135AC00123481E1843D8E7C445D3D80020C44551
S1135AD0F6D3D2E7FF070000F0B54E464546DE4652
S1135AE057465C00E0B51F03DB0F99462A4B0E03B3
S1135AF04D00C90F8446360B6D0D8B4690463F0B07
S1135B00640D9D4220D0244B9C4222D0002D12D102
S1135B10304343424341DBB2002C1FD0002B0CD056
S1135B204B460120013B034318003CBC9046994678
S1135B30A246AB46F0BD002C16D0CB4517D05B4631
S1135B40594201230B43EFE7310002230143EBD118
S1135B50D9E7390002231143E6D1D7E73A43DDD12F
S1135B6000230028E0D0EAE73A43E6D1E7E7A5427C
S1135B70E5DC05DBBE42E2D807D00023BE42D3D227
S1135B805946012301390B43CEE7C445D7D8002336
S1135B90C445F5D3C8E7C046FF070000014B1868A9
S1135BA07047C0460C00002070B50D4E0D4D00240A
S1135BB0AD1BAD1005D0A300F35801349847A5429E
S1135BC0F9D100F013FA084E084D0024AD1BAD10B6
S1135BD005D0A300F35801349847A542F9D170BD0C
S1135BE0F85F0000F85F0000F85F0000006000004C
S1135BF010B5830725D00378002B24D0030003219C
S1135C0002E01A78002A1AD001330B42F9D119683C
S1135C100E4A0F4C8A188A43224206D1043319686B
S1135C200A4A8A188A432242F8D01A001B78002BA9
S1135C3003D0013211780029FBD1101A10BD181AB3
S1135C40FCE70300E3E70020F8E7C046FFFEFEFEA2
S1135C5080808080034B10B5002B02D0024800F0F6
S1135C6005F810BD000000007D5C000010B50100C7
S1135C7000230022002000F01FF810BD70B5094B6E
S1135C80094CE41AA41009D0084AA518AD00ED186F
S1135C902B68013C9847043D002CF9D100F0B0F981
S1135CA070BDC0460C60000010600000FFFFFF3FA5
S1135CB07047C0467047C046F0B54E464546DE467E
S1135CC05746E0B5364D83B00600286898460F0065
S1135CD09146FFF7EDFF334B1C68A4235B00E058AB
S1135CE0002852D043681F2B13DC5A1C0192002E4B
